:100000000C9435010C9466010C9466010C94660105
:100010000C9466010C9466010C9466010C946601C4
:100020000C9466010C9466010C9466010C946601B4
:100030000C9466010C9466010C9466010C946601A4
:100040000C9466010C9466010C9466010C94660194
:100050000C9466010C9466010C9466010C94FD04EA
:100060000C9466010C94C7040C949D040C946601D6
:100070000C9466010C9466010C9466010C94660164
:100080000C9466010C9466010C9466010C94660154
:100090000C9466010C9466010C9466010C94660144
:1000A0000C9466010C9466010C9466010C94660134
:1000B0000C9466010C9466010C9466010C94660124
:1000C0000C9466010C9466010C9466010C94660114
:1000D0000C9466010C9466010C9466010C94660104
:1000E0000C9466010C943E020C9408030C94F801E5
:1000F0000C943B030C94F7070C940F030C943A03F5
:100100000C9468010C943F030C941F030C948B0215
:100110000C9495010C94FA020C940C030C94A40119
:100120000C9415030C9400030C9427030C942D03DA
:100130000C9404030C9406020C9423030C943103D6
:100140000C9419030C9435030000210024002700AF
:100150002A002D00300033000101000004010701D6
:100160000A0100002200250028002B002E0031008B
:10017000340002010000050108010B01000020000D
:100180002300260029002C002F003200000100006F
:10019000030106010901050505050705080808080A
:1001A000020202020A0A080804040404010101010F
:1001B000010101010303030303030303040707070A
:1001C0000C0C0C0C0C0C0C0C0202020206060606AF
:1001D000060606060B0B0B0B0B0B0B0B010210207C
:1001E000200808102040102040800201020108046D
:1001F0000201010204081020408080402010080401
:100200000201800402018040201008040201080459
:10021000020101020408102040800102040810209D
:10022000408000000A0B02090C0D0E0807030401B0
:1002300000000000000000000000000000000000BE
:10024000000000000000000000000000000012118B
:10025000100000000000000000000000000000008E
:100260000000000000000000F70711241FBECFEFC0
:10027000D1E2DEBFCDBF00E00CBF23E0A6E8B2E0D4
:1002800001C01D92A033B207E1F712E0A0E0B2E096
:10029000ECE5F5E100E00BBF02C007900D92A63837
:1002A000B107D9F711E0C5E3D1E000E006C021971E
:1002B0000109802FFE010E945908C433D10780E054
:1002C0000807A9F70E9447050C94AC0A0C9400009B
:1002D000AF92BF92CF92DF92EF92FF920F931F9354
:1002E000CF93DF936C017B018B01040F151FEB0192
:1002F0005E01AE18BF08C017D10759F06991D60149
:10030000ED91FC910190F081E02DC6011995892BAA
:1003100079F7C501DF91CF911F910F91FF90EF9079
:10032000DF90CF90BF90AF900895FC01538D448D26
:10033000252F30E0842F90E0821B930B541710F090
:10034000CF96089501970895FC01918D828D98179D
:1003500061F0A28DAE0FBF2FB11D5D968C91928D75
:100360009F5F9F73928F90E008958FEF9FEF0895A6
:100370002FB7F89480918B0290918C02A0918D02FE
:10038000B0918E022FBF8093970290939802A09312
:100390009902B0939A028FE892E00E94A40197FF1D
:1003A00026C02FB7F89480918B0290918C02A09177
:1003B0008D02B0918E022FBF40919702509198020A
:1003C0006091990270919A02841B950BA60BB70B52
:1003D000409193025091940260919502709196021F
:1003E00084179507A607B707B0F28FEF9FEF089520
:1003F000FC01918D828D981731F0828DE80FF11DEF
:10040000858D90E008958FEF9FEF0895FC01918D09
:10041000228D892F90E0805C9F4F821B91098F7302
:10042000992708958FE892E00E94060221E0892B27
:1004300009F420E0822F0895FC01A48DA80FB92FA4
:10044000B11DA35ABF4F2C91848D90E001968F73FC
:100450009927848FA689B7892C93A089B1898C911B
:10046000837080648C93938D848D981306C002886A
:10047000F389E02D80818F7D80830895EF92FF9234
:100480000F931F93CF93DF93EC0181E0888F9B8DB7
:100490008C8D98131AC0E889F989808185FF15C071
:1004A0009FB7F894EE89FF896083E889F989808194
:1004B0008370806480839FBF81E090E0DF91CF9163
:1004C0001F910F91FF90EF900895F62E0B8D10E085
:1004D0000F5F1F4F0F731127E02E8C8D8E110CC0F4
:1004E0000FB607FCFACFE889F989808185FFF5CF3F
:1004F000CE010E941C02F1CFEB8DEC0FFD2FF11D00
:10050000E35AFF4FF0829FB7F8940B8FEA89FB897B
:1005100080818062CFCFCF93DF93EC01888D8823D9
:10052000B9F0AA89BB89E889F9898C9185FD03C056
:10053000808186FD0DC00FB607FCF7CF8C9185FF3B
:10054000F2CF808185FFEDCFCE010E941C02E9CF62
:10055000DF91CF91089580E090E0892B29F00E94EF
:10056000120281110E94000080E090E0892B49F086
:1005700080E090E0892B29F00E94000081110E9408
:10058000000080E090E0892B49F080E090E0892B2A
:1005900029F00E94000081110E94000080E090E09C
:1005A000892B49F080E090E0892B29F00E9400001F
:1005B00081110C94000008958150823108F05AC0D6
:1005C000E82FF0E08827E851FD4F8F4F0C94590831
:1005D00008030C03FA02000304033A030F03150394
:1005E00019031F03230327032D0331033A033503A4
:1005F0003B033F03809180008F77809380000895B4
:10060000809180008F7DF9CF80918000877FF5CF2A
:1006100084B58F7784BD089584B58F7DFBCF80919D
:10062000B0008F778093B00008958091B0008F7DE7
:10063000F9CF809190008F778093900008958091FA
:1006400090008F7DF9CF80919000877FF5CF8091CA
:10065000A0008F778093A00008958091A0008F7DE7
:10066000F9CF8091A000877FF5CF809120018F770F
:10067000809320010895809120018F7DF9CF809192
:100680002001877FF5CFCF93DF93282F30E0F9014A
:10069000EE5DFD4F8491F901E452FE4FD491F901D2
:1006A000EA56FE4FC491CC23A1F081110E94DC02D6
:1006B000EC2FF0E0EE0FFF1FE458FE4FA591B49130
:1006C000EC91ED2381E090E009F480E0DF91CF919F
:1006D000089580E090E0FACF1F93CF93DF93282F07
:1006E00030E0F901EE5DFD4F8491F901E452FE4FD7
:1006F000D491F901EA56FE4FC491CC23A9F0162FEC
:1007000081110E94DC02EC2FF0E0EE0FFF1FEE598A
:10071000FE4FA591B4918FB7F894EC91111108C0D8
:10072000D095DE23DC938FBFDF91CF911F91089589
:10073000DE2BF8CFCF93DF9390E0FC01E452FE4F25
:1007400024918A569E4FFC0184918823D1F090E039
:10075000880F991FFC01E85BFE4FA591B491FC0145
:10076000EE59FE4FC591D491623071F49FB7F89461
:100770003C91822F809583238C93E8812E2B2883B4
:100780009FBFDF91CF9108958FB7F894EC912E2BF6
:100790002C938FBFF6CF3FB7F8948091870290914A
:1007A0008802A0918902B0918A0226B5A89B05C053
:1007B0002F3F19F00196A11DB11D3FBFBA2FA92FE0
:1007C000982F8827BC01CD01620F711D811D911DDD
:1007D00042E0660F771F881F991F4A95D1F7089549
:1007E0008F929F92AF92BF92CF92DF92EF92FF9241
:1007F0006B017C010E94CB034B015C01C114D1044D
:10080000E104F104B9F00E94CB03681979098A095F
:100810009B09683E73408105910580F321E0C21A6F
:10082000D108E108F10888EE880E83E0981EA11C2B
:10083000B11CE4CFFF90EF90DF90CF90BF90AF90CE
:100840009F908F90089542E050E068E172E08FE859
:1008500092E00C946801CF93DF93FC01019000209B
:10086000E9F73197AF01481B590BBC018FE892E0C3
:100870000E946801EC010E9423048C0F9D1FDF91F0
:10088000CF9108950F931F93CF93DF93EC0188814D
:100890009981009759F02A813B812617370730F05C
:1008A00081E0DF91CF911F910F9108958B016F5FD0
:1008B0007F4F0E948609009759F0998388831B8394
:1008C0000A832C813D81232B59F7FC011082E8CF4C
:1008D00080E0E7CFEF92FF920F931F93CF93DF93C8
:1008E000EC017B018A01BA010E944204288139810E
:1008F000811114C02115310519F0C9010E94FD08AC
:10090000198218821D821C821B821A82CE01DF91FD
:10091000CF911F910F91FF90EF9008951D830C834D
:10092000B701C9010E948B0AF1CFFC01808191813E
:10093000009711F00C94FD0808951F920F920FB6C6
:100940000F9211240BB60F922F933F934F935F9307
:100950006F937F938F939F93AF93BF93EF93FF9387
:100960008FE892E00E941C02FF91EF91BF91AF913E
:100970009F918F917F916F915F914F913F912F91B7
:100980000F900BBE0F900FBE0F901F9018951F92E7
:100990000F920FB60F9211240BB60F922F938F93D5
:1009A0009F93EF93FF93E0919F02F091A0028081CB
:1009B000E091A502F091A60282FD1DC09081809178
:1009C000A8028F5F8F732091A902821741F0E091F6
:1009D000A802F0E0E157FD4F958F8093A802FF91A8
:1009E000EF919F918F912F910F900BBE0F900FBEA3
:1009F0000F901F9018958081F2CF1F920F920FB623
:100A00000F9211242F933F938F939F93AF93BF9394
:100A100080918B0290918C02A0918D02B0918E02F8
:100A20003091860223E0230F2D3758F50196A11D42
:100A3000B11D2093860280938B0290938C02A09329
:100A40008D02B0938E028091870290918802A091CE
:100A50008902B0918A020196A11DB11D809387027F
:100A600090938802A0938902B0938A02BF91AF91BC
:100A70009F918F913F912F910F900FBE0F901F90DC
:100A8000189526E8230F0296A11DB11DD2CFCF9352
:100A9000DF93CDB7DEB7A0970FB6F894DEBF0FBED9
:100AA000CDBF789484B5826084BD84B5816084BDF7
:100AB00085B5826085BD85B5816085BD80916E00FC
:100AC000816080936E00109281008091810082602D
:100AD000809381008091810081608093810080916A
:100AE00080008160809380008091B1008460809359
:100AF000B1008091B00081608093B000809191003E
:100B00008260809391008091910081608093910038
:100B1000809190008160809390008091A10082601C
:100B20008093A1008091A10081608093A1008091B9
:100B3000A00081608093A000809121018260809359
:100B40002101809121018160809321018091200108
:100B500081608093200180917A00846080937A0084
:100B600080917A00826080937A0080917A0081601F
:100B700080937A0080917A00806880937A00109246
:100B8000C100E0919F02F091A00282E08083E09199
:100B90009B02F0919C021082E0919D02F0919E02D6
:100BA0008FEC80831092A702E091A302F091A4023F
:100BB00086E08083E091A102F091A20280818061B1
:100BC0008083E091A102F091A202808188608083FD
:100BD000E091A102F091A202808180688083E0917F
:100BE000A102F091A20280818F7D80838AE090E053
:100BF000A0E0B0E08093930290939402A0939502BA
:100C0000B09396021AE261E0812F0E949A031F5F5F
:100C10001233C9F762E089E10E949A0362E08BE136
:100C20000E949A03CE0101967C011A8E198E1C8EA9
:100C30001B8E1E8E1D8E46E350E06BE172E0CE01EE
:100C400049960E946A041C8A1B8A1E8A1D8A188E75
:100C50001F8A4AE0B70189E190E00E942408F70169
:100C600001900020E9F73197AF014E195F09B701F4
:100C7000CE0143960E946A041A8219821C821B824A
:100C80001E821D824EE050E062E572E0C7010E94C4
:100C90006A046D8C7E8C6114710409F461C08D80CE
:100CA0009E808114910409F45BC0CF88D88CC81849
:100CB000D908098D1A8DC114D104A1F469817A81F2
:100CC000C8010E94920A8C01009709F449C06B89FF
:100CD0007C894F89588D0E94670A8F89988D080FEB
:100CE000191FECCFD7FC0FC049805A805301C801AF
:100CF000B2010E94920A009709F47BC0880D991DE9
:100D0000AC0CBD1CF5CF580169817A81C8010E94E5
:100D1000920A3C01009701F14C01801A910AA4014A
:100D2000B801C5010E94670AA80CB91C6B897C89AF
:100D30004F89588DC5010E94670A8F89988DA80E2A
:100D4000B91E0D811E81060D171D8D8D9E8D8C0D7A
:100D50009D1D9E8F8D8FD8CFB801C5010E948B0A33
:100D6000C7010E949504CE0143960E9495044D8DC3
:100D70005E8D698D7A8D8FE892E00E9468010E94F5
:100D8000230460E375E780E090E00E94F0038FE8C1
:100D900092E00E940602892B09F4E7C01A821982A8
:100DA0001C821B821E821D8250E040E06AE172E0DC
:100DB000C7010E946A040E94B8010D811E8197FD3F
:100DC00091C08B8B1C8A0F5F1F4FB801C7010E9417
:100DD0004204882381F329813A818D819E81BE015D
:100DE0006D5E7F4F820F931F0E948B0A1E830D83BF
:100DF000E2CF6A147B0409F4B3CF8B8D9C8D8A15E6
:100E00009B0568F4B5016F5F7F4FC8010E9486099A
:100E1000009709F4A5CF9A8F898FBC8EAB8E0D8D6C
:100E20001E8D0150110917FD9BCF48014D805E803A
:100E30004114510409F494CFAD8CBE8CA114B104BB
:100E400009F48ECFA414B50408F48ACF0A151B0543
:100E500020F0450191E0891A9108698C7A8CE9812A
:100E6000FA81F8A3EF8FC3010FEF1FEF1301280CD6
:100E7000391C2816390680F06F8D78A10E94920ADD
:100E8000009751F09C01261937098216930608F441
:100E9000980101968901EDCF17FD62CF400E511EDA
:100EA000C301840D951DA50144195509BC018C0D84
:100EB0009D1D0E94700A8D8D9E8D8C0D9D1D9E8F97
:100EC0008D8F298D3A8D820F931FFC011082898DA1
:100ED0009A8D6B897C894F89588D800F911F0E9454
:100EE000670A9FCF012BF1F109811A8161E672E057
:100EF000C8010E94820A892B09F047C001E310E073
:100F000000FF0EC061E0802F0E946C0368EE73E06A
:100F100080E090E00E94F00360E0802F0E946C036C
:100F2000015011090932110559F768EE73E080E0AC
:100F300090E00E94F00300E310E000FD0EC061E0CD
:100F4000802F0E946C0368EE73E080E090E00E94C6
:100F5000F00360E0802F0E946C03015011090932F8
:100F6000110559F7C7010E94950489E10E944303C6
:100F7000892BA9F588E692E00E942B04CE014996C0
:100F80000E9495040E94AB0250CE64E672E0C80154
:100F90000E94820A892B31F71AE261E0812F0E94B8
:100FA0006C0368EE73E080E090E00E94F00360E084
:100FB000812F0E946C030BE5011B61E0802F0E94D2
:100FC0006C0368EE73E080E090E00E94F00360E064
:100FD000802F0E946C031F5F1E32F9F6C3CF8BE196
:100FE0000E944303892B51F687E792E0C5CFEFE8D3
:100FF000F2E01382128288EE93E0A0E0B0E08483F6
:101000009583A683B7838AE092E09183808385EC01
:1010100090E09587848784EC90E09787868780ECC2
:1010200090E0918B808B81EC90E0938B828B82ECB3
:1010300090E0958B848B86EC90E0978B868B118E5D
:10104000128E138E148E0895BB274A3031F49923E3
:1010500022F4BDE2909581959F4F0C943008BB27F8
:10106000FB015527AA27880F991FAA1FA41710F064
:10107000A41B83955051B9F7A05DAA3308F0A95D70
:10108000A193009779F7B111B1931192CB010C9410
:101090004908DC01FC01672F71917723E1F7329752
:1010A00004C07C916D9370836291AE17BF07C8F343
:1010B0000895EE0FFF1F881F8BBF0790F691E02D5C
:1010C00019940F931F93CF93DF938230910510F4FF
:1010D00082E090E0E0912E03F0912F0330E020E0D9
:1010E000B0E0A0E0309799F42115310509F44AC029
:1010F000281B390B24303105D8F58A819B81611575
:10110000710589F1FB0193838283FE0111C0408147
:1011100051810281138148175907E0F04817590798
:1011200099F4109761F012960C93129713961C93F2
:101130003296CF01DF91CF911F910F9108950093C7
:101140002E0310932F03F4CF2115310551F04217D0
:10115000530738F0A901DB019A01BD01DF01F80155
:10116000C1CFEF01F9CF90932F0380932E03CDCF02
:10117000FE01E20FF31F81939193225031093983CD
:101180002883D7CF20912C0330912D03232B41F4BA
:10119000209102023091030230932D0320932C03FF
:1011A00020910002309101022115310541F42DB743
:1011B0003EB74091040250910502241B350BE0918B
:1011C0002C03F0912D03E217F307A0F42E1B3F0B25
:1011D0002817390778F0AC014E5F5F4F24173507A9
:1011E00048F04E0F5F1F50932D0340932C038193C3
:1011F00091939FCFF0E0E0E09CCFCF93DF930097F7
:10120000E9F0FC01329713821282A0912E03B09173
:101210002F03ED0130E020E01097A1F4208131810F
:10122000820F931F20912C0330912D03281739072B
:1012300009F061C0F0932D03E0932C03DF91CF916F
:101240000895EA01CE17DF07E8F54A815B819E0128
:1012500041155105B1F7E901FB83EA8349915991A1
:10126000C40FD51FEC17FD0761F4808191810296B0
:10127000840F951FE90199838883828193819B83E1
:101280008A83F0E0E0E012968D919C91139700978D
:10129000B9F52D913C911197CD010296820F931FC4
:1012A00020912C0330912D032817390739F63097F8
:1012B00051F510922F0310922E03B0932D03A0939B
:1012C0002C03BCCFD383C28340815181840F951FEF
:1012D000C817D90761F44E5F5F4F88819981480F25
:1012E000591F518340838A819B8193838283211577
:1012F000310509F0B0CFF0932F03E0932E039ECF7A
:10130000FD01DC01C0CF13821282D7CF4F925F92D2
:101310006F927F928F929F92AF92BF92CF92DF9205
:10132000EF92FF920F931F93CF93DF938C0100975F
:1013300099F4CB01DF91CF911F910F91FF90EF9026
:10134000DF90CF90BF90AF909F908F907F906F90E5
:101350005F904F900C946108FC01E60FF71F9C0111
:1013600022503109E217F30708F4AEC0D901CD913C
:10137000DC911197C617D70720F1C530D10578F059
:10138000CE0104978617970750F0C61BD70B2297FC
:10139000C193D1936D937C93CF010E94FD08C80146
:1013A000DF91CF911F910F91FF90EF90DF90CF9041
:1013B000BF90AF909F908F907F906F905F904F9075
:1013C00008955B01AC1ABD0A4C018C0E9D1EA091C4
:1013D0002E03B0912F03512C412CF12CE12C1097AE
:1013E00031F580912C0390912D038815990509F012
:1013F0005CC04616570608F058C0809100029091D4
:101400000102009741F48DB79EB7409104025091BC
:101410000502841B950BE817F90708F055C0F093F7
:101420002D03E0932C03F90171836083B8CF8D9174
:101430009C91119712966C90129713967C9013972B
:10144000A815B90559F56C0142E0C40ED11CCA14A7
:10145000DB0420F1AC014A195B09DA0112961597F9
:1014600080F06282738251834083D9016D937C93B3
:10147000E114F10471F0D7011396FC93EE931297E7
:101480008ECF22968C0F9D1FF90191838083F301EB
:10149000EFCFF0932F03E0932E0381CF4816590628
:1014A00008F42C017D01D3019ACFCB010E94610881
:1014B0007C01009749F0AE01B8010E94670AC8019B
:1014C0000E94FD0887016BCF10E000E068CFFB01B0
:1014D000DC0102C001900D9241505040D8F70895B0
:1014E0006817790768F4FB01DC01E40FF51FA40F0E
:1014F000B51F02C002900E9241505040D8F7089597
:101500000C94670AFB01DC018D9101908019011098
:10151000D9F3990B0895FB01DC0101900D92002095
:10152000E1F70895FB0151915523A9F0BF01DC01BA
:101530004D9145174111E1F759F4CD01019000207B
:1015400049F04D9140154111C9F3FB014111EFCF15
:0C15500081E090E001970895F894FFCF2F
:10155C00000030038000000000003E02680195018D
:10156C008B020602A401F8010D0A007B202274797B
:10157C007065223A202274656D70657261747572A3
:10158C0065222C202276616C7565223A2022247B00
:10159C0074656D70657261747572657D204322206F
:1015AC007D00247B74656D70657261747572657DE8
:1015BC00006F6E006F666600427574746F6E20313A
:1015CC0020666972656400427574746F6E203220F7
:0615DC00666972656400FF
:00000001FF
