:100000000C94CB010C94FC010C94FC010C94FC01AD
:100010000C94FC010C94FC010C94FC010C94FC016C
:100020000C94FC010C94FC010C94FC010C94FC015C
:100030000C94FC010C94FC010C94FC010C94FC014C
:100040000C94FC010C94FC010C94FC010C94FC013C
:100050000C94FC010C94FC010C94FC010C94320BEC
:100060000C94FC010C94FC0A0C94D20A0C94FC0134
:100070000C94FC010C94FC010C94FC010C94FC010C
:100080000C94FC010C94FC010C94FC010C94FC01FC
:100090000C94FC010C94FC010C94FC010C94FC01EC
:1000A0000C94FC010C94FC010C94FC010C94FC01DC
:1000B0000C94FC010C94FC010C94FC010C94FC01CC
:1000C0000C94FC010C94FC010C94FC010C94FC01BC
:1000D0000C94FC010C94FC010C94FC010C94FC01AC
:1000E0000C94FC010C9412040C9402110C94FE0369
:1000F0000C9497020C94C4020C9416040C940804FB
:100100000C94EF030C94B7060C9404040C9429048B
:100110000C94FB030C94D3020C942A040C941C043E
:100120000C942D030C94F5020C9424040C94E90314
:100130000C94E7020C947C0B0C9420040C94F703B1
:100140000C940C080C940E040C947A030C942E045A
:100150000C94F3030C94B80600407A10F35A00A0F4
:10016000724E18090010A5D4E80000E87648170080
:1001700000E40B54020000CA9A3B000000E1F505C0
:10018000000080969800000040420F000000A0860A
:1001900001000000102700000000E803000000003C
:1001A0006400000000000A000000000001000000E0
:1001B00000002C76D888DC674F0823DFC1DFAE59FA
:1001C000E1B1B796E5E3E453C63AE651997696E88D
:1001D000E6C28426EB898C9B62ED407C6FFCEFBC11
:1001E0009C9F40F2BAA56FA5F490055A2AF75C933C
:1001F0006B6CF9676DC11BFCE0E40D47FEF520E672
:10020000B500D0ED902E0300943577050080841E54
:10021000080000204E0A000000C80C333333330FAF
:10022000986E12831141EF8D2114893BE65516CF4C
:10023000FEE6DB18D1844B381BF77C1D901DA4BB58
:10024000E424203284725E228100C9F124ECA1E50D
:100250003D2700002100240027002A002D00300047
:10026000330001010000040107010A01000022001F
:10027000250028002B002E00310034000201000070
:10028000050108010B0100000A0B02090C0D0E0804
:10029000070304010000000000000000000000004F
:1002A000000000000000000000000000000000004E
:1002B000000012111000000000000000000000000B
:1002C0000000000000000000000000004661696CB2
:1002D000656420746F20726561642066726F6D20A2
:1002E0004448542073656E736F7221000000200033
:1002F0002300260029002C002F00320000010000FE
:100300000301060109010505050507050808080898
:10031000020202020A0A080804040404010101019D
:100320000101010103030303030303030407070798
:100330000C0C0C0C0C0C0C0C02020202060606063D
:10034000060606060B0B0B0B0B0B0B0B010210200A
:1003500020080810204010204080020102010804FB
:10036000020101020408102040808040201008048F
:1003700002018004020180402010080402010804E8
:10038000020101020408102040800102040810202C
:1003900040807C0B021111241FBECFEFD1E2DEBFE3
:1003A000CDBF00E00CBF24E0A8E5B3E001C01D9282
:1003B000AD35B207E1F713E0A0E0B2E0EEE7FFE20F
:1003C00000E00BBF02C007900D92A835B107D9F726
:1003D00011E0CAECD1E000E006C021970109802FAE
:1003E000FE010E946315C93CD10780E00807A9F708
:1003F0000E94240C0C94AD170C940000CF92DF9255
:10040000EF92FF920F931F9320912A0430912B04B7
:100410002130310534F02330310554F023303105DB
:10042000D1F11F910F91FF90EF90DF90CF90089541
:10043000C0902D04D0902E04E0902F04F090300452
:100440008B019C0152E0000F111F221F331F5A9590
:10045000D1F743E0C422DD24EE24FF240C291D291A
:100460002E293F2900932D0410932E0420932F044E
:1004700030933004609331047093320480933304DA
:10048000909334046093350470933604809337045A
:1004900090933804C6CFC0902D04D0902E04E090E5
:1004A0002F04F09030048B019C01000F111F221FBC
:1004B000331F41E0C422DD24EE24FF24CFCFCF92AE
:1004C000DF92EF92FF92CF93DF93B0911A04A0E0F6
:1004D0008111AB2F80911B0490E0880F991FAC0114
:1004E00044515D4FC0902004D0902104E09022043C
:1004F000F090230430E020E0FA01C591D491E88126
:10050000B90190E080E0EB23EA130AC02F5F3F4F70
:100510006C157D058E059F0578F36FEF7FEFCB019E
:10052000DF91CF91FF90EF90DF90CF900895AF9241
:10053000BF92CF92DF92EF92FF920F931F93CF93D0
:10054000DF936C017B018B01040F151FEB015E0132
:10055000AE18BF08C017D10759F06991D601ED91C7
:10056000FC910190F081E02DC6011995892B79F756
:10057000C501DF91CF911F910F91FF90EF90DF9018
:10058000CF90BF90AF900895FC01538D448D252FDF
:1005900030E0842F90E0821B930B541710F0CF961D
:1005A000089501970895FC01918D828D981761F04F
:1005B000A28DAE0FBF2FB11D5D968C91928D9F5F66
:1005C0009F73928F90E008958FEF9FEF0895FC0145
:1005D000918D828D981731F0828DE80FF11D858DF8
:1005E00090E008958FEF9FEF0895FC01918D228D8B
:1005F000892F90E0805C9F4F821B91098F73992710
:10060000089580E793E00E94F50221E0892B09F428
:1006100020E0822F0895FC01A48DA80FB92FB11DF1
:10062000A35ABF4F2C91848D90E001968F73992728
:10063000848FA689B7892C93A089B1898C91837006
:1006400080648C93938D848D981306C00288F389FF
:10065000E02D80818F7D80830895EF92FF920F932C
:100660001F93CF93DF93EC0181E0888F9B8D8C8D5E
:1006700098131AC0E889F989808185FF15C09FB752
:10068000F894EE89FF896083E889F9898081837015
:10069000806480839FBF81E090E0DF91CF911F91C4
:1006A0000F91FF90EF900895F62E0B8D10E00F5FE5
:1006B0001F4F0F731127E02E8C8D8E110CC00FB6BB
:1006C00007FCFACFE889F989808185FFF5CFCE0153
:1006D0000E940B03F1CFEB8DEC0FFD2FF11DE35AC0
:1006E000FF4FF0829FB7F8940B8FEA89FB898081D6
:1006F0008062CFCFCF93DF93EC01888D8823B9F050
:10070000AA89BB89E889F9898C9185FD03C080811C
:1007100086FD0DC00FB607FCF7CF8C9185FFF2CF99
:10072000808185FFEDCFCE010E940B03E9CFDF91E1
:10073000CF91089580E090E0892B29F00E94010379
:1007400081110E94000080E090E0892B49F080E058
:1007500090E0892B29F00E94000081110E94000086
:1007600080E090E0892B49F080E090E0892B29F02F
:100770000E94000081110E94000080E090E0892B1F
:1007800049F080E090E0892B29F00E94000081115F
:100790000C94000008958150823108F05AC0E82F6F
:1007A000F0E08827E952FC4F8F4F0C946315F70354
:1007B000FB03E903EF03F3032904FE030404080425
:1007C0000E04120416041C042004290424042A0420
:1007D0002E04809180008F7780938000089580910F
:1007E00080008F7DF9CF80918000877FF5CF84B521
:1007F0008F7784BD089584B58F7DFBCF8091B00045
:100800008F778093B00008958091B0008F7DF9CFED
:10081000809190008F778093900008958091900050
:100820008F7DF9CF80919000877FF5CF8091A000D8
:100830008F778093A00008958091A0008F7DF9CFDD
:100840008091A000877FF5CF809120018F778093E2
:1008500020010895809120018F7DF9CF80912001A2
:10086000877FF5CFCF93DF93282F30E0F901EA5748
:10087000FD4F8491F901E45BFC4FD491F901EA5FEB
:10088000FC4FC491CC23A1F081110E94CB03EC2F2B
:10089000F0E0EE0FFF1FE451FD4FA591B491EC91F4
:1008A000ED2381E090E009F480E0DF91CF9108959D
:1008B00080E090E0FACF1F93CF93DF93282F30E0B2
:1008C000F901EA57FD4F8491F901E45BFC4FD491A3
:1008D000F901EA5FFC4FC491CC23A9F0162F8111D6
:1008E0000E94CB03EC2FF0E0EE0FFF1FE459FD4F09
:1008F000A591B4918FB7F894EC91111108C0D095DF
:10090000DE23DC938FBFDF91CF911F910895DE2B03
:10091000F8CFCF93DF9390E0FC01E45BFC4F249190
:100920008A5F9C4FFC0184918823D1F090E0880F6E
:10093000991FFC01EE5AFD4FA591B491FC01E459B9
:10094000FD4FC591D491623071F49FB7F8943C91FA
:10095000822F809583238C93E8812E2B28839FBF41
:10096000DF91CF9108958FB7F894EC912E2B2C93B3
:100970008FBFF6CF3FB7F89480915D0390915E03EF
:10098000A0915F03B091600326B5A89B05C02F3FDF
:1009900019F00196A11DB11D3FBFBA2FA92F982FA5
:1009A0008827BC01CD01620F711D811D911D42E0A0
:1009B000660F771F881F991F4A95D1F708958F9268
:1009C0009F92AF92BF92CF92DF92EF92FF924B0134
:1009D0005C010E94BA046B017C010E94BA046C198C
:1009E0007D098E099F09683E734081059105A8F332
:1009F00021E0821A9108A108B10888EEC80E83E0B0
:100A0000D81EE11CF11C81149104A104B10429F742
:100A1000FF90EF90DF90CF90BF90AF909F908F901E
:100A200008952FB7F8946091590370915A038091FB
:100A30005B0390915C032FBF08950F931F938091E8
:100A400026040E943204182F809128040E94320448
:100A5000880F991F812B90912C04891709F46DC080
:100A6000E0912C0400912D0410912E0420912F046C
:100A70003091300494E0E902F0011124482F082E4F
:100A8000000C550BE42BF52BE65FFD4F9081492FB1
:100A9000990F550B660B770B400F511F621F731F89
:100AA00040932D0450932E0460932F0470933004D0
:100AB00080932C0420912A0430912B04223031059C
:100AC000D1F123303105E1F121303105B1F5833029
:100AD000A1F580912D0490912E04A0912F04B09146
:100AE000300432E0B595A795979587953A95D1F75B
:100AF0008093310490933204A0933304B093340470
:100B00008091390490913A04A0913B04B0913C0447
:100B100080933D0490933E04A0933F04B09340041F
:100B20000E9411056093390470933A0480933B044A
:100B300090933C0402C0882361F21F910F910895A5
:100B4000882311F08330C9F780912D0490912E04F1
:100B5000A0912F04B0913004B595A79597958795EE
:100B6000C7CFCF92DF92EF92FF920F931F93CF9355
:100B7000DF93CDB7DEB7C054D1400FB6F894DEBFD7
:100B80000FBECDBF0E94110500911C0410911D04E1
:100B900020911E0430911F046B017C01C01AD10A00
:100BA000E20AF30A97018601003D1740210531054D
:100BB00090F480912404C05CDE4F0FB6F894DEBF41
:100BC0000FBECDBFDF91CF911F910F91FF90EF909E
:100BD000DF90CF90089560931C0470931D04809360
:100BE0001E0490931F041092170410921604109282
:100BF0001504109214041092130462E080911804FA
:100C00000E94890461E070E080E090E00E94DF04CF
:100C100061E0809118040E94890460E080911804CA
:100C20000E945B04809119048551823020F58BE28B
:100C300091E10197F1F762E0809118040E94890424
:100C40008091250490E08230910538F0880F991F3B
:100C5000880F991F05970197F1F7F89480E00E949B
:100C60005F026F3F7F4F8F4F9F4F61F410922404BC
:100C7000789480E0A0CF64E170E080E090E00E9492
:100C8000DF04D9CF81E00E945F026F3F7F4F8F4F1B
:100C90009F4F61F38E010F5F1F4F6E012FEBC21A42
:100CA0002EEFD20A780180E00E945F02F701608394
:100CB00071838283938381E00E945F02F7016483E2
:100CC000758386839783F8E0EF0EF11CEC14FD0426
:100CD00051F7789430E020E0F801C080D180E280C4
:100CE000F3804481558166817781FFEFCF16DF065F
:100CF000EF06FF0631F04F3F8FEF58076807780780
:100D000019F410922404B5CFF90183E0F595E79525
:100D10008A95E1F7ED5EFB4F8081880FC416D506FA
:100D2000E606F70610F180832F5F3F4F085F1F4FE5
:100D30002832310589F640911704209113048091DF
:100D40001404280F3327331F80911504280F311DF9
:100D500080911604820F932F911D99274817190629
:100D600081F681E08093240426CF8160DCCF089552
:100D700090E080E00895CF93DF93EC0160E08E81F6
:100D80000E945B0461E08E810E945B0460E08E81C2
:100D90000E945B048BE891E00197F1F7DF91CF911E
:100DA0000895CF92DF92EF92FF920F931F93CF930C
:100DB000DF936C017C0187E0E80EF11CD0E0C0E01D
:100DC000062F10E0B8010C2E02C0759567950A94A5
:100DD000E2F76170F70181917F010E945B04219627
:100DE000C430D10579F7C601DF91CF911F910F91E2
:100DF000FF90EF90DF90CF900C94BB06CF92DF92E4
:100E0000EF92FF920F931F93CF93DF93EC01F62E97
:100E1000642F8C810E945B048D818F3F19F060E00C
:100E20000E945B040F2D10E08F8584FF25C06E01AA
:100E300087E0C80ED11CF12CE12CB8010E2C02C0A9
:100E4000759567950A94E2F76170F60181916F01DB
:100E50000E945B04FFEFEF1AFF0A88E0E816F10436
:100E600061F7CE01DF91CF911F910F91FF90EF902D
:100E7000DF90CF900C94BB06B80184E07595679520
:100E80008A95E1F7CE010E94D1066F2DCE01DF9148
:100E9000CF911F910F91FF90EF90DF90CF900C9426
:100EA000D10640E0682F81E494E00C94FE06CF93D5
:100EB000DF93813029F09091500498609093500412
:100EC000809354041092550480E48093560480E18A
:100ED0008093570480E58093580461E08091450435
:100EE0000E948904809146048F3F19F061E00E94BE
:100EF000890461E0809147040E948904C1E4D4E040
:100F00009E01215434408091500484FD0BC084E044
:100F100090E021962817390744F461E08E810E9401
:100F20008904EECF88E090E0F4CF8BE39DE0019759
:100F3000F1F760E0809145040E945B0460E08091DD
:100F400047040E945B04809146048F3F19F060E0E3
:100F50000E945B048091500484FD39C063E081E409
:100F600094E00E94D106CBE4D6E4CE010197F1F7DC
:100F700063E081E494E00E94D1062197F1F763E0F9
:100F800081E494E00E94D10683E592E00197F1F7B5
:100F900062E081E494E00E94D10680915004806276
:100FA0000E94510784E0809351048CE00E94510715
:100FB00081E00E9451078BE39FE10197F1F782E006
:100FC0008093520486E0DF91CF910C9451078062A8
:100FD0000E9451078BE496E40197F1F78091500449
:100FE00080620E94510783E592E00197F1F78091BA
:100FF000500480620E945107D0CF90915404691729
:1010000010F06FEF690FE62FF0E0EF5BFB4F948974
:10101000890F80680C94510741E00E94FE0681E030
:1010200090E008952F923F924F925F926F927F923D
:101030008F929F92AF92BF92CF92DF92EF92FF92E8
:101040000F931F93CF93DF9360901104709012045D
:101050006114710409F410C1FC018480958081142D
:10106000910409F409C18B017C01FB01C480D58086
:10107000C818D908C0910D04D0910E04C114D10430
:10108000B9F4F70160817181CE010E949317EC01E0
:10109000009709F4F1C0F8016081718144815581A4
:1010A0000E947117F80184819581C80FD91FE9CF7B
:1010B000D7FC10C0FC01408051805301CE01B20129
:1010C0000E949317009709F44CC0880D991DAC0C31
:1010D000BD1CF5CF5E01F70160817181CE010E94D8
:1010E00093173C01009739F14C018C1A9D0AA40119
:1010F000BE01C5010E947117A80CB91CF8016081DE
:10110000718144815581C5010E947117F801848164
:101110009581A80EB91EF701C481D581C60DD71DD2
:1011200080911104909112048C0D9D1D90931204D6
:1011300080931104D0CFBE01C501DF91CF911F91E3
:101140000F91FF90EF90DF90CF90BF90AF909F9066
:101150008F907F906F905F904F903F902F900C9466
:101160008C176A147B0409F487C080910F04909156
:1011700010048A159B0588F4B5016F5F7F4FCE017F
:101180000E949016009709F477C090930E04809304
:101190000D04B0921004A0920F04C0911104D091DC
:1011A00012042197D7FD68C04E01F7014480558095
:1011B0004114510409F460C0A0901104B0901204CD
:1011C000A114B10409F458C0A414B50408F454C01F
:1011D000CA15DB0520F04501F1E08F1A91086090F7
:1011E0000D0470900E04C301CFEFDFEF1301280C44
:1011F000391C2816390688F0F701608171810E9438
:101200009317009751F09C0126193709821693060F
:1012100008F49E010196E901ECCFD7FD2DC04C0EDC
:101220005D1EC301840D951DA50144195509BC011E
:101230008C0D9D1D0E947A178091110490911204CB
:101240008C0D9D1D909312048093110420910D0428
:1012500030910E04820F931FFC01108280910D04C7
:1012600090910E04F80160817181448155818C0F49
:101270009D1F0E94711795CFDF91CF911F910F9104
:10128000FF90EF90DF90CF90BF90AF909F908F90A6
:101290007F906F905F904F903F902F9008950F93A5
:1012A0001F93CF93DF93EC0188819981009759F0C8
:1012B0002A813B812617370730F081E0DF91CF91FB
:1012C0001F910F9108958B016F5F7F4F0E949016C1
:1012D000009759F0998388831B830A832C813D8171
:1012E000232B59F7FC011082E8CF80E0E7CFFB0108
:1012F00001900020E9F73197AF01461B570BDC0145
:10130000ED91FC910280F381E02D19944F925F9250
:101310006F927F928F929F92AF92BF92CF92DF9205
:10132000EF92FF920F931F93CF93DF93CDB7DEB76A
:10133000A1970FB6F894DEBF0FBECDBF8C016B0135
:10134000770FEE08FF08F7FE49C0DC01ED91FC9134
:101350000190F081E02D6DE219955C012227332781
:10136000A9012C193D094E095F0919A2FE01B19688
:101370007F019AE0492E512C612C712CCA01B901D0
:10138000A30192010E944115605DD7016E937D011A
:10139000211531054105510589F790E080E010974E
:1013A00021F0BD01C8010E9477098A0D9B1DA196FD
:1013B0000FB6F894DEBF0FBECDBFDF91CF911F9166
:1013C0000F91FF90EF90DF90CF90BF90AF909F90E4
:1013D0008F907F906F905F904F900895A701960136
:1013E00019A2FE01B1967F018AE0882E912CA12CD2
:1013F000B12CCA01B901A50194010E944115605D9B
:10140000D7016E937D01211531054105510589F7FD
:1014100090E080E0109759F2BD01C8010E94770961
:10142000C6CFCF93DF93EC0188819981009711F0AB
:101430000E940716198218821D821C821B821A8242
:10144000DF91CF910895CF92DF92EF92FF920F93A9
:101450001F93CF93DF93CDB7DEB7A1970FB6F89464
:10146000DEBF0FBECDBF7C01CB01BA01F7011182F7
:10147000108213821282158214828E010F5F1F4F19
:1014800022E044E00E9406116C01009771F0FC011B
:1014900001900020E9F731978F01081B190BB80163
:1014A000C7010E944F09811112C0C7010E94110A91
:1014B000A1960FB6F894DEBF0FBECDBFDF91CF91DE
:1014C0001F910F91FF90EF90DF90CF900895F7015B
:1014D00015830483B601808191810E948C17E8CF27
:1014E000EF92FF920F931F93CF93DF93EC017B0159
:1014F000198218821B821A821D821C82FB010190B4
:101500000020E9F731978F01061B170BB8010E94E5
:101510004F09811109C0CE01DF91CF911F910F9129
:10152000FF90EF900C94110A1D830C83B701888102
:101530009981DF91CF911F910F91FF90EF900C94C3
:101540008C17FC0180819181009711F00C94071693
:1015500008950F931F93CF93DF9300D000D0CDB7A2
:10156000DEB78C016130D9F468E372E0CE010196F8
:101570000E94700ABE016F5F7F4FC8010E9412086F
:10158000CE0101960E94A10A26960FB6F894DEBFFE
:101590000FBECDBFDF91CF911F910F9108956BE3E7
:1015A00072E0E4CF1F920F920FB60F9211240BB688
:1015B0000F922F933F934F935F936F937F938F93EC
:1015C0009F93AF93BF93EF93FF9380E793E00E94C5
:1015D0000B03FF91EF91BF91AF919F918F917F91FD
:1015E0006F915F914F913F912F910F900BBE0F9094
:1015F0000FBE0F901F9018951F920F920FB60F926B
:1016000011240BB60F922F938F939F93EF93FF9319
:10161000E0918003F09181038081E0918603F09155
:10162000870382FD1DC09081809189038F5F8F7336
:1016300020918A03821741F0E0918903F0E0E0599C
:10164000FC4F958F80938903FF91EF919F918F912C
:101650002F910F900BBE0F900FBE0F901F901895FB
:101660008081F2CF1F920F920FB60F9211242F9309
:101670003F938F939F93AF93BF9380915903909122
:101680005A03A0915B03B0915C033091580323E0AF
:10169000230F2D3758F50196A11DB11D2093580336
:1016A0008093590390935A03A0935B03B0935C0318
:1016B00080915D0390915E03A0915F03B091600300
:1016C0000196A11DB11D80935D0390935E03A093CD
:1016D0005F03B0936003BF91AF919F918F913F9152
:1016E0002F910F900FBE0F901F90189526E8230F93
:1016F0000296A11DB11DD2CF1F93CF93DF93E0E7D8
:10170000F3E01382128288EE93E0A0E0B0E08483DD
:101710009583A683B7838EE192E09183808385ECE5
:1017200090E09587848784EC90E09787868780ECAB
:1017300090E0918B808B81EC90E0938B828B82EC9C
:1017400090E0958B848B86EC90E0978B868B118E46
:10175000128E138E148EE1E4F4E01382128280E381
:1017600092E0918380838EE184838FE1858380E2A0
:10177000868386E1878387E1808788E1818789E1A5
:1017800082878AE183878BE184878CE185878DE17D
:10179000868780E1878781E00E945707C6E2D4E010
:1017A00084E290E09983888385E290E09B838A833A
:1017B00083E090E09D838C8362E084E20E94890450
:1017C00062E085E20E94890488810E943204182F19
:1017D0008A810E943204880F991F812B8E831F8279
:1017E000188619861A861B861C861D861E861F86ED
:1017F000188A198A1A8AA3E1B4E08BE215968C93B1
:1018000015978BE016968C931697E7E7F3E0E49133
:101810001796EC931797E1E3F3E0E4911896EC93B5
:10182000189740E85EE360E070E01D964D935D938D
:101830006D937C9350976FE372E08DE094E0DF91BD
:10184000CF911F910C94700ACF93DF93CDB7DEB781
:101850002C970FB6F894DEBF0FBECDBF789484B539
:10186000826084BD84B5816084BD85B5826085BD9C
:1018700085B5816085BD80916E00816080936E002A
:10188000109281008091810082608093810080911C
:1018900081008160809381008091800081608093CD
:1018A00080008091B10084608093B1008091B0008D
:1018B00081608093B000809191008260809391005C
:1018C000809191008160809391008091900081606F
:1018D000809390008091A10082608093A10080910C
:1018E000A10081608093A1008091A000816080931D
:1018F000A0008091210182608093210180912101CB
:10190000816080932101809120018160809320017A
:1019100080917A00846080937A0080917A0082605E
:1019200080937A0080917A00816080937A00809120
:101930007A00806880937A001092C10084E00E944F
:10194000570762E086E20E94890462E370E080E06B
:1019500090E00E94FE010E941D058091310490914B
:101960003204A0913304B0913404909362038093C5
:101970006103E0918003F091810382E08083E09134
:101980007C03F0917D031082E0917E03F0917F0350
:101990008FEC808310928803E0918403F09185039B
:1019A00086E08083E0918203F091830380818061EF
:1019B0008083E0918203F09183038081886080833B
:1019C000E0918203F0918303808180688083E091BD
:1019D0008203F091830380818F7D80838AE090E091
:1019E000A0E0B0E08093740390937503A093760316
:1019F000B093770367ED72E080E793E00E94770988
:101A00006AEE72E080E793E00E94770962E08091DD
:101A100018040E9489040E941105605D77408109C5
:101A2000910960931C0470931D0480931E0490938D
:101A30001F0487E38093250461E083E30E94890407
:101A400060E083E30E945B0461E084E30E94890418
:101A500060E084E30E945B0461E085E30E94890406
:101A600060E085E30E945B0444E6A42EB12C5AE0BA
:101A7000952E00E310E00E941D05809131049091A5
:101A80003204A0913304B091340497FF65C060E044
:101A900070E0CB010E94FE0190E080E020916103A4
:101AA000309162032817390709F441C07C01E21A1A
:101AB000F30A909362038093610386E20E943204EA
:101AC000813009F056C080910002909101028E0D84
:101AD0009F1D9093010280930002809100029091DB
:101AE00001028536910524F0B0920102A092000215
:101AF00080910202909103028536910524F0B09204
:101B00000302A0920202809100029091010297FFCD
:101B100004C0109201021092000280910202909182
:101B2000030297FF04C010920302109202020E9467
:101B3000B105882351F0809119048B3030F08D303D
:101B400018F18551823008F451C0412C512C30ECF1
:101B5000632E3FE7732E36C0853691050CF49ECF79
:101B600064E670E080E090E00E94FE0184E690E090
:101B700095CF80910202909103028E0D9F1D90934C
:101B8000030280930202A9CF6091140470E090E0F8
:101B900080E00E9477132DEC3CEC4CEC5DE30E945E
:101BA000D6136B017C016091130470E090E080E03B
:101BB0000E9477139B01AC01C701B6010E949514E6
:101BC0002B013C010E94B105882309F475C0809166
:101BD00019048C3009F4C6C2D8F48B3091F1C12CB1
:101BE000D12C90ECE92E9FE7F92E55C0609113049B
:101BF0007091140476276727762790E080E00E9492
:101C000075132DEC3CEC4CEC5DE30E94D613D8CF61
:101C10008551823020F780901504682D70E0762F72
:101C2000662766277F7780911604682B90E080E016
:101C30000E9475132DEC3CEC4CEC5DE30E94D61336
:101C4000ADC26091150470E090E080E00E947513D1
:101C50006B017C018090160487FE0AC0AC019B01D9
:101C600060E070E080E89FEB0E9494146B017C01BF
:101C7000682D6F7070E090E080E00E9477132DEC8B
:101C80003CEC4CEC5DE30E94D613A70196010E9448
:101C900095146B017C01A3019201C301B2010E9462
:101CA0003C15811109C0A7019601C701B6010E9428
:101CB0003C15882309F47BC28CECE82E82E0F82ED8
:101CC000F7016491662349F080E793E00E942D03B9
:101CD000FFEFEF1AFF0A892B99F76AEE72E080E7AF
:101CE00093E00E94770960E080E00E94FD076DEEBE
:101CF00072E081E494E00E94770960916A03709138
:101D00006B0380916C0390916D030E9401156B0130
:101D100060E082E00E94FD07B60181E494E00E9449
:101D20008609B601DD0C880B990B0E9477139B0185
:101D3000AC0160916A0370916B0380916C03909188
:101D40006D030E94941420E030E040E251E40E94D0
:101D5000D6136B017C0160E085E00E94FD07C7019E
:101D6000B6010E94011581E494E00E94860960E0BA
:101D700089E00E94FD076BEF72E081E494E00E942D
:101D80007709609102027091030281E494E00E945D
:101D9000860961E080E00E94FD076DEF72E081E45A
:101DA00094E00E94770960916603709167038091C7
:101DB0006803909169030E9401156B0161E082E064
:101DC0000E94FD07B60181E494E00E948609B601F5
:101DD000DD0C880B990B0E9477139B01AC0160917D
:101DE00066037091670380916803909169030E9474
:101DF000941420E030E040E251E40E94D6136B01DD
:101E00007C0161E085E00E94FD07C701B6010E94E8
:101E1000011581E494E00E94860961E089E00E9456
:101E2000FD076BEF72E081E494E00E947709609116
:101E300000027091010281E494E00E9486096091A1
:101E4000000270910102072E000C880B990B0E9472
:101E50007713209166033091670340916803509196
:101E600069030E94371518160CF0B2C181E0809307
:101E70006403C0906A03D0906B03E0906C03F09011
:101E80006D036091020270910302072E000C880B13
:101E9000990B0E947713A70196010E943715181617
:101EA0000CF099C181E08093650370906503809187
:101EB0006403872C882A8092630361E0813009F0F3
:101EC00060E083E30E945B0421E061E0721260E065
:101ED00085E30E945B0481E061E0881260E084E3B6
:101EE0000E945B0480E793E00E94F5021816190631
:101EF0000CF035C180E793E00E94D30290936F030A
:101F000080936E03CF9709F081C0B701A601CE017F
:101F100007960E94230A6CE073E0CE0101960E94AE
:101F2000700ABE01695F7F4FCE0101960E941208C0
:101F3000CE0101960E94A10ACE0107960E94A10A35
:101F40004091660350916703609168037091690343
:101F5000CE0107960E94230A68E173E0CE01019644
:101F60000E94700ABE01695F7F4FCE0101960E94F8
:101F70001208CE0101960E94A10ACE0107960E9486
:101F8000A10AF090650367E273E0CE0101960E941A
:101F9000700A6F2DCE0101960E94A90ACE0101960A
:101FA0000E94A10AF090640364E373E0CE010196FD
:101FB0000E94700A6F2DCE0101960E94A90ACE01DF
:101FC00001960E94A10AF090630362E473E0CE01DF
:101FD00001960E94700A6F2DCE0101960E94A90AF7
:101FE000CE0101960E94A10A409111045091120461
:101FF00060910D0470910E0480E793E00E949702B7
:102000006AEE72E080E793E00E94770980916E03A8
:1020100090916F03819709F0A2C080E793E00E943E
:10202000F502892BD1F380E793E00E94D3029C0153
:10203000205331092A30310508F0D0C090936F0346
:1020400080936E0380916E0390916F03C097989E6A
:102050007001999EF00C1124F0920302E0920202AA
:1020600080E793E00E94F502892BD1F380E793E0AB
:102070000E94D3029C01205331092A30310508F017
:10208000B2C090936F0380936E0380916E03909122
:102090006F03C0978E0D9F1D9093030280930202E1
:1020A00080E793E00E94F502892BD1F380E793E06B
:1020B0000E94D3029C01205331092A30310508F0D7
:1020C00097C090936F0380936E0380916E039091FD
:1020D0006F03C097989E7001999EF00C1124F092A6
:1020E0000102E092000280E793E00E94F502892B52
:1020F000D1F380E793E00E94D3029C012053310981
:102100002A30310508F079C090936F0380936E03F5
:1021100080916E0390916F03C0978E0D9F1D9093D9
:102120000102809300026FE473E080E793E00E9475
:102130007709609102027091030280E793E00E94A8
:10214000860963E573E080E793E00E947709609178
:1021500000027091010280E793E00E9486090E94CC
:102160009A0389CC80901504682D70E090E080E09F
:102170000E9475136B017C01609116046F7070E012
:1021800090E080E00E9477132DEC3CEC4CEC5DE39A
:102190000E94D613A70196010E9495146B017C0141
:1021A00087FE79CDF7FAF094F7F8F09474CDC092E9
:1021B0006603D0926703E0926803F092690340924D
:1021C0006A0350926B0360926C0370926D038BCD27
:1021D000109264034ECE1092650367CE10936F0386
:1021E00000936E032FCF10936F0300936E034DCFB8
:1021F00010936F0300936E0368CF10936F030093E7
:102200006E0386CF8DE094E00C94A10AEF920F93B9
:102210001F93CF93DF93E80134E047FD34E1042EB0
:10222000000C550B57FF03C0519541955109E32E02
:10223000022F242FAE010E942411CE01DF91CF91F5
:102240001F910F91EF9008958F929F92AF92BF923E
:10225000CF92DF92EF92FF920F931F93CF93DF9372
:1022600000D000D000D0CDB7DEB76A01F22EB02E7C
:10227000102FFBE3AF2EA01608F41BE31F5F012F06
:1022800027E0AE014F5F5F4F0E949D12BC01898124
:10229000982F9970913009F44EC09BE2E1FC04C084
:1022A0009E2D9170E0FC49C05E2D5071E82FE870C2
:1022B00083FF55C084E0911101C083E0EF2DE81B3E
:1022C0008F1508F0E0E0D6018E2F20E25523C9F1EA
:1022D000992329F0D6019C93C60101966C019601C1
:1022E0002D5F3F4FE2FE33C08EE4D6018C9391E424
:1022F00011969C93119712968C93D9018E2F90E290
:1023000081112AC0E20FF32FF11D10828EEF9FEF93
:1023100029960FB6F894DEBF0FBECDBFDF91CF91E7
:102320001F910F91FF90EF90DF90CF90BF90AF90F3
:102330009F908F9008959DE2B7CF90E2B5CF2D93F7
:1023400081508111FCCFCE0ED11CE0E0C1CF8EE6D2
:10235000D6018C9391E6CCCF9D938150D1CF482F5D
:10236000447082FF3DC084E0911101C083E08F156D
:1023700010F4EF2DE81BD6018E2F20E2552309F132
:10238000992329F0D6019C93C60101966C01960110
:102390002D5F3F4FE2FE1BC089E4D6018C938EE493
:1023A00011968C93119786E412968C93D9018E2FF7
:1023B00090E2882309F4A6CF9D938150FACF2D9304
:1023C00081508111FCCFCE0ED11CE0E0D9CF89E63F
:1023D000D6018C938EE611968C93119786E6E4CF06
:1023E0009B0177FF02C030E020E0A1E0B0E0911156
:1023F00002C0B0E0A0E0F9013196AE0FBF1F8B2CF8
:10240000912CBB2009F461C05401EFEFAE1ABE0A53
:10241000AA0DBB1DFA161B0619F014F04F2D4A1B0E
:10242000511188C0E3FC59C07601A42FB0E2A1117C
:102430004FC0C40ED11C992309F45BC040E0D60103
:102440001196F60190836D01552309F448C0012FC0
:10245000060F9A81582F507184FF03C0913309F4FD
:10246000015010160CF047C0093008F008E0EEE209
:10247000FE2E5B01A01AB108850191948194910808
:102480002F3F320729F4D601FC92F60131966F01F5
:102490006217730794F1021713077CF5DB01A21B87
:1024A000B30BAA24A394B12CAC0EBD1EAA0DBB1D68
:1024B00011968C9121503109D601119628153905B4
:1024C000F4F0F60180836D01DBCFB12CA12CA0CFFD
:1024D000F701B1937F01A150AACF9111B0CFD601DE
:1024E000942F50E302C05D9391509111FCCFC40E24
:1024F000D11C40E0ACCF01E0BACF80E3DBCF621764
:10250000730731F4963388F4953311F4552369F049
:10251000F6018083FD01842F90E2811108C0A40F91
:10252000B11D1C9290E080E0F3CE81E3F1CF919356
:102530008150F3CF911183CF8ACF283008F027E064
:102540003327DA01990F311D87FD916000966105EF
:10255000710539F432602E5F3D9330E32A95E1F73F
:1025600008959F3F30F080387105610509F03C5FA8
:102570003C5F3D93913008F08068911DDF93CF93CD
:102580001F930F93FF92EF92192F987F9695E92F43
:1025900096959695E90FFF27EE54FE4F992733271E
:1025A000EE24FF24A701E70105900894079428F47E
:1025B000360FE71EF81E491F511D660F771F881F33
:1025C000991F0694A1F70590079428F4E70EF81ECA
:1025D000491F561FC11D770F881F991F661F06943C
:1025E000A1F70590079428F4F80E491F561FC71F3E
:1025F000D11D880F991F661F771F0694A1F70590BC
:10260000079420F4490F561FC71FD81F990F661F44
:10261000771F881F0694A9F784911095177041F0D1
:10262000D695C79557954795F794E7941A95C1F7AE
:10263000E8E5F1E0689415901591359165919591D3
:1026400005907FE27395E118F10A430B560BC90B15
:10265000D009C0F7E10CF11E431F561FC91FD01D42
:102660007EF4703311F48A95E6CFE894015030F08F
:10267000080F0AF40027021708F4202F2395022FD1
:102680007A3328F079E37D932A95E9F710C07D939A
:102690002A9589F606949795679537951795179417
:1026A000E118F10A430B560BC90BD00998F023959A
:1026B0007E9173957A3308F070E37C932013B8F71A
:1026C0007E9170617D9330F0839571E37D9370E32B
:1026D0002A95E1F71124EF90FF900F911F91CF9170
:1026E000DF91992787FD90950895E89409C097FB9D
:1026F0003EF490958095709561957F4F8F4F9F4FD9
:102700009923A9F0F92F96E9BB279395F69587951C
:1027100077956795B795F111F8CFFAF4BB0F11F4DF
:1027200060FF1BC06F5F7F4F8F4F9F4F16C0882386
:1027300011F096E911C0772321F09EE8872F762FBC
:1027400005C0662371F096E8862F70E060E02AF0FD
:102750009A95660F771F881FDAF7880F96958795E9
:1027600097F90895990F0008550FAA0BE0E8FEEFBE
:1027700016161706E807F907C0F012161306E40745
:10278000F50798F0621B730B840B950B39F40A263E
:1027900061F0232B242B252B21F408950A2609F41C
:1027A000A140A6958FEF811D811D08950E94E91318
:1027B0000C945A140E944C1438F00E94531420F0C8
:1027C000952311F00C9443140C94491411240C9487
:1027D0008E140E946B1470F3959FC1F3950F50E017
:1027E000551F629FF001729FBB27F00DB11D639FC3
:1027F000AA27F00DB11DAA1F649F6627B00DA11D69
:10280000661F829F2227B00DA11D621F739FB00D0E
:10281000A11D621F839FA00D611D221F749F33277E
:10282000A00D611D231F849F600D211D822F762F17
:102830006A2F11249F5750409AF0F1F088234AF0F4
:10284000EE0FFF1FBB1F661F771F881F9150504060
:10285000A9F79E3F510580F00C9443140C948E14FC
:102860005F3FE4F3983ED4F3869577956795B795E7
:10287000F795E7959F5FC1F7FE2B880F911D969501
:10288000879597F9089597F99F6780E870E060E071
:1028900008959FEF80EC089500240A9416161706F9
:1028A00018060906089500240A9412161306140641
:1028B00005060895092E0394000C11F4882352F0A4
:1028C000BB0F40F4BF2B11F460FF04C06F5F7F4F5C
:1028D0008F4F9F4F089557FD9058440F551F59F043
:1028E0005F3F71F04795880F97FB991F61F09F3FFD
:1028F00079F087950895121613061406551FF2CF26
:102900004695F1DF08C0161617061806991FF1CF75
:1029100086957105610508940895E894BB2766279C
:102920007727CB0197F908955058BB27AA270E9413
:10293000AC140C945A140E944C1438F00E94531496
:1029400020F039F49F3F19F426F40C9449140EF446
:10295000E095E7FB0C944314E92F0E946B1458F3A5
:10296000BA17620773078407950720F079F4A6F574
:102970000C948D140EF4E0950B2EBA2FA02D0B01A4
:10298000B90190010C01CA01A0011124FF27591BB4
:1029900099F0593F50F4503E68F11A16F040A22FBA
:1029A000232F342F4427585FF3CF4695379527952B
:1029B000A795F0405395C9F77EF41F16BA0B620B2A
:1029C000730B840BBAF09150A1F0FF0FBB1F661F71
:1029D000771F881FC2F70EC0BA0F621F731F841FB4
:1029E00048F4879577956795B795F7959E3F08F0DA
:1029F000B0CF9395880F08F09927EE0F979587959C
:102A000008950E9408156894B1110C948E140895CD
:102A10000E94731488F09F5798F0B92F9927B751E7
:102A2000B0F0E1F0660F771F881F991F1AF0BA9572
:102A3000C9F714C0B13091F00E948D14B1E008952F
:102A40000C948D14672F782F8827B85F39F0B93F21
:102A5000CCF3869577956795B395D9F73EF4909525
:102A60008095709561957F4F8F4F9F4F08950E947D
:102A7000B21308F48FEF08950E94B213880B990BDC
:102A80000895A1E21A2EAA1BBB1BFD010DC0AA1FAF
:102A9000BB1FEE1FFF1FA217B307E407F50720F0C7
:102AA000A21BB30BE40BF50B661F771F881F991F42
:102AB0001A9469F760957095809590959B01AC018B
:102AC000BD01CF010895EE0FFF1F881F8BBF079038
:102AD000F691E02D19940F931F93CF93DF938230DB
:102AE000910510F482E090E0E0915B04F0915C04C9
:102AF00030E020E0B0E0A0E0309799F421153105F6
:102B000009F44AC0281B390B24303105D8F58A81D5
:102B10009B816115710589F1FB0193838283FE011D
:102B200011C0408151810281138148175907E0F09B
:102B30004817590799F4109761F012960C93129761
:102B400013961C933296CF01DF91CF911F910F9175
:102B5000089500935B0410935C04F4CF21153105B4
:102B600051F04217530738F0A901DB019A01BD016A
:102B7000DF01F801C1CFEF01F9CF90935C0480939E
:102B80005B04CDCFFE01E20FF31F8193919322509E
:102B9000310939832883D7CF2091590430915A04C1
:102BA000232B41F4209106023091070230935A04FE
:102BB000209359042091040230910502211531051A
:102BC00041F42DB73EB74091080250910902241BF1
:102BD000350BE0915904F0915A04E217F307A0F481
:102BE0002E1B3F0B2817390778F0AC014E5F5F4F63
:102BF0002417350748F04E0F5F1F50935A04409337
:102C00005904819391939FCFF0E0E0E09CCFCF9364
:102C1000DF930097E9F0FC01329713821282A091B2
:102C20005B04B0915C04ED0130E020E01097A1F46A
:102C300020813181820F931F2091590430915A04D1
:102C40002817390709F061C0F0935A04E09359043A
:102C5000DF91CF910895EA01CE17DF07E8F54A81A9
:102C60005B819E0141155105B1F7E901FB83EA83C0
:102C700049915991C40FD51FEC17FD0761F480816C
:102C800091810296840F951FE9019983888382813F
:102C900093819B838A83F0E0E0E012968D919C9172
:102CA00013970097B9F52D913C911197CD0102969C
:102CB000820F931F2091590430915A042817390725
:102CC00039F6309751F510925C0410925B04B09382
:102CD0005A04A0935904BCCFD383C283408151814D
:102CE000840F951FC817D90761F44E5F5F4F888125
:102CF0009981480F591F518340838A819B81938317
:102D000082832115310509F0B0CFF0935C04E09384
:102D10005B049ECFFD01DC01C0CF13821282D7CFAE
:102D20004F925F926F927F928F929F92AF92BF92DB
:102D3000CF92DF92EF92FF920F931F93CF93DF9387
:102D40008C01009799F4CB01DF91CF911F910F91E6
:102D5000FF90EF90DF90CF90BF90AF909F908F90BB
:102D60007F906F905F904F900C946B15FC01E60F75
:102D7000F71F9C0122503109E217F30708F4AEC097
:102D8000D901CD91DC911197C617D70720F1C53035
:102D9000D10578F0CE0104978617970750F0C61B2F
:102DA000D70B2297C193D1936D937C93CF010E944F
:102DB0000716C801DF91CF911F910F91FF90EF90FF
:102DC000DF90CF90BF90AF909F908F907F906F904B
:102DD0005F904F9008955B01AC1ABD0A4C018C0EB8
:102DE0009D1EA0915B04B0915C04512C412CF12CF0
:102DF000E12C109731F58091590490915A0488156F
:102E0000990509F05CC04616570608F058C0809135
:102E1000040290910502009741F48DB79EB740914E
:102E2000080250910902841B950BE817F90708F076
:102E300055C0F0935A04E0935904F90171836083FB
:102E4000B8CF8D919C91119712966C901297139612
:102E50007C901397A815B90559F56C0142E0C40E92
:102E6000D11CCA14DB0420F1AC014A195B09DA0158
:102E70001296159780F06282738251834083D90144
:102E80006D937C93E114F10471F0D7011396FC93D8
:102E9000EE9312978ECF22968C0F9D1FF90191838E
:102EA0008083F301EFCFF0935C04E0935B0481CF68
:102EB0004816590608F42C017D01D3019ACFCB01A5
:102EC0000E946B157C01009749F0AE01B8010E9489
:102ED0007117C8010E94071687016BCF10E000E050
:102EE00068CFFB01DC0102C001900D9241505040BF
:102EF000D8F708956817790768F4FB01DC01E40F3F
:102F0000F51FA40FB51F02C002900E924150504011
:102F1000D8F708950C947117FB01DC0101900D9214
:102F20000020E1F70895FB0151915523A9F0BF015D
:102F3000DC014D9145174111E1F759F4CD010190A4
:102F4000002049F04D9140154111C9F3FB01411199
:102F5000EFCF81E090E00197089511E0CAECD1E055
:102F600000E006C0802FFE010E9463152196011D1E
:0E2F7000CB3CD10780E00807A9F7F894FFCF0B
:102F7E003200320000005D04800000FF01000100FD
:102F8E0000FFFF0000010001FF00000000002D0304
:102F9E009702C4027A03F502D302E7020000000092
:102FAE000C089702B806B7066F6E006F6666007B58
:102FBE00202268756D6964697479223A2022247B17
:102FCE0068756D69646974797D222C202274656D33
:102FDE007065726174757265223A2022247B746565
:102FEE006D70657261747572657D222C2022687514
:102FFE006D537461747573223A2022247B68756D4B
:10300E005374617475737D222C202274656D705318
:10301E007461747573223A2022247B74656D70532B
:10302E0074617475737D222C202266616E537461F7
:10303E00747573223A2022247B66616E5374617418
:10304E0075737D22207D00496E697469616C697AA1
:10305E00656420646576696365000D0A00483D204D
:10306E00202E2025202020202025003E00543D200B
:10307E00202E206F43202020206F4300247B687574
:10308E006D69646974797D00247B74656D706572F9
:10309E0061747572657D00247B68756D53746174FF
:1030AE0075737D00247B74656D70537461747573D4
:1030BE007D00247B66616E5374617475737D004868
:0830CE00743D002054743D0024
:00000001FF
