:020000040000FA
:100000000C94C8010C94F9010C94F9010C94F901B9
:100010000C94F9010C94F9010C94F9010C94F90178
:100020000C94F9010C94F9010C94F9010C94F90168
:100030000C94F9010C94F9010C94F9010C94F90158
:100040000C94F9010C94F9010C94F9010C94F90148
:100050000C94F9010C94F9010C94F9010C94190B0E
:100060000C94F9010C94E30A0C94B90A0C94F9016C
:100070000C94F9010C94F9010C94F9010C94F90118
:100080000C94F9010C94F9010C94F9010C94F90108
:100090000C94F9010C94F9010C94F9010C94F901F8
:1000A0000C94F9010C94F9010C94F9010C94F901E8
:1000B0000C94F9010C94F9010C94F9010C94F901D8
:1000C0000C94F9010C94F9010C94F9010C94F901C8
:1000D0000C94F9010C94F9010C94F9010C94F901B8
:1000E0000C94F9010C940F040C94630B0C941904F8
:1000F0000C9421040C94F2020C94EC030C94F8037D
:100100000C94B5060C9405040C94E4020C9477034B
:100110000C9427040C941D040C942B040C94E603FB
:100120000C94F0030C940B040C94C1020C94130473
:100130000C94B4060C9409080C9426040C94FB034C
:100140000C9494020C94F4030C9401040C942A0370
:100150000C94D00200407A10F35A00A0724E180995
:100160000010A5D4E80000E87648170000E40B541E
:10017000020000CA9A3B000000E1F50500008096ED
:100180009800000040420F000000A086010000001F
:10019000102700000000E8030000000064000000D9
:1001A00000000A00000000000100000000002C76A2
:1001B000D888DC674F0823DFC1DFAE59E1B1B796BD
:1001C000E5E3E453C63AE651997696E8E6C284261A
:1001D000EB898C9B62ED407C6FFCEFBC9C9F40F2F6
:1001E000BAA56FA5F490055A2AF75C936B6CF96772
:1001F0006DC11BFCE0E40D47FEF520E6B500D0ED37
:10020000902E0300943577050080841E080000209E
:100210004E0A000000C80C333333330F986E12833C
:100220001141EF8D2114893BE65516CFFEE6DB1810
:10023000D1844B381BF77C1D901DA4BBE4242032D5
:1002400084725E228100C9F124ECA1E53D27000003
:100250002100240027002A002D0030003300010176
:100260000000040107010A01000022002500280007
:100270002B002E00310034000201000005010801AE
:100280000B0100000A0B02090C0D0E080703040104
:10029000000000000000000000000000000000005E
:1002A000000000000000000000000000000012112B
:1002B000100000000000000000000000000000002E
:1002C00000000000000000004661696C6564207455
:1002D0006F20726561642066726F6D2044485420FF
:1002E00073656E736F7221000000200023002600EA
:1002F00029002C002F00320000010000030106013C
:10030000090105050505070508080808020202029B
:100310000A0A0808040404040101010101010101A1
:100320000303030303030303040707070C0C0C0C6C
:100330000C0C0C0C02020202060606060606060655
:100340000B0B0B0B0B0B0B0B0102102020080810E2
:100350002040102040800201020108040201010235
:10036000040810204080804020100804020180040E
:100370000201804020100804020108040201010269
:100380000408102040800102040810204080630B04
:1003900011241FBECFEFD1E2DEBFCDBF00E00CBF06
:1003A00024E0AAEBB3E001C01D92A93BB207E1F73C
:1003B00013E0A0E0B2E0EAE4F0E300E00BBF02C02B
:1003C00007900D92AA3BB107D9F711E0C8ECD1E034
:1003D00000E006C021970109802FFE010E94D91577
:1003E000C73CD10780E00807A9F70E94060C0C94CF
:1003F00023180C940000CF92DF92EF92FF920F939C
:100400001F9320918604309187042130310534F008
:100410002330310554F023303105D1F11F910F9174
:10042000FF90EF90DF90CF900895C0908904D09016
:100430008A04E0908B04F0908C048B019C0152E0C4
:10044000000F111F221F331F5A95D1F743E0C4221A
:10045000DD24EE24FF240C291D292E293F29009399
:10046000890410938A0420938B0430938C04609346
:100470008D0470938E0480938F0490939004609306
:100480009104709392048093930490939404C6CF44
:10049000C0908904D0908A04E0908B04F0908C0482
:1004A0008B019C01000F111F221F331F41E0C4224A
:1004B000DD24EE24FF24CFCFCF92DF92EF92FF9284
:1004C000CF93DF93B0917604A0E08111AB2F8091A0
:1004D000770490E0880F991FAC0148515D4FC090A0
:1004E0007C04D0907D04E0907E04F0907F0430E0A6
:1004F00020E0FA01C591D491E881B90190E080E053
:10050000EB23EA130AC02F5F3F4F6C157D058E0564
:100510009F0578F36FEF7FEFCB01DF91CF91FF90D5
:10052000EF90DF90CF900895AF92BF92CF92DF927D
:10053000EF92FF920F931F93CF93DF936C017B0198
:100540008B01040F151FEB015E01AE18BF08C01729
:10055000D10759F06991D601ED91FC910190F0819C
:10056000E02DC6011995892B79F7C501DF91CF914F
:100570001F910F91FF90EF90DF90CF90BF90AF90C1
:100580000895FC01538D448D252F30E0842F90E099
:10059000821B930B541710F0CF960895019708957E
:1005A000FC01918D828D981761F0A28DAE0FBF2F47
:1005B000B11D5D968C91928D9F5F9F73928F90E09D
:1005C00008958FEF9FEF0895FC01918D828D98170C
:1005D00031F0828DE80FF11D858D90E008958FEF49
:1005E0009FEF0895FC01918D228D892F90E0805C12
:1005F0009F4F821B91098F739927089582ED93E095
:100600000E94F20221E0892B09F420E0822F089554
:10061000FC01A48DA80FB92FB11DA35ABF4F2C9177
:10062000848D90E001968F739927848FA689B7896E
:100630002C93A089B1898C91837080648C93938D65
:10064000848D981306C00288F389E02D80818F7D08
:1006500080830895EF92FF920F931F93CF93DF93C0
:10066000EC0181E0888F9B8D8C8D98131AC0E889EE
:10067000F989808185FF15C09FB7F894EE89FF89BD
:100680006083E889F98980818370806480839FBF5B
:1006900081E090E0DF91CF911F910F91FF90EF905B
:1006A0000895F62E0B8D10E00F5F1F4F0F7311276B
:1006B000E02E8C8D8E110CC00FB607FCFACFE889A6
:1006C000F989808185FFF5CFCE010E940803F1CF23
:1006D000EB8DEC0FFD2FF11DE35AFF4FF0829FB71A
:1006E000F8940B8FEA89FB8980818062CFCFCF930A
:1006F000DF93EC01888D8823B9F0AA89BB89E8894A
:10070000F9898C9185FD03C0808186FD0DC00FB6EF
:1007100007FCF7CF8C9185FFF2CF808185FFEDCF6D
:10072000CE010E940803E9CFDF91CF91089580E0C8
:1007300090E0892B29F00E94FE0281110E940000A6
:1007400080E090E0892B49F080E090E0892B29F04F
:100750000E94000081110E94000080E090E0892B3F
:1007600049F080E090E0892B29F00E94000081117F
:100770000E94000080E090E0892B49F080E090E04A
:10078000892B29F00E94000081110C94000008952B
:100790008150823108F05AC0E82FF0E08827EC52EF
:1007A000FC4F8F4F0C94D915F403F803E603EC03C8
:1007B000F0032604FB03010405040B040F041304D7
:1007C00019041D042604210427042B0480918000B1
:1007D0008F77809380000895809180008F7DF9CF7E
:1007E00080918000877FF5CF84B58F7784BD089591
:1007F00084B58F7DFBCF8091B0008F778093B00060
:1008000008958091B0008F7DF9CF809190008F770F
:10081000809390000895809190008F7DF9CF809112
:100820009000877FF5CF8091A0008F778093A00004
:1008300008958091A0008F7DF9CF8091A000877FDF
:10084000F5CF809120018F778093200108958091CA
:1008500020018F7DF9CF80912001877FF5CFCF9345
:10086000DF93282F30E0F901EE57FD4F8491F90115
:10087000E85BFC4FD491F901EE5FFC4FC491CC23AF
:10088000A1F081110E94C803EC2FF0E0EE0FFF1FD2
:10089000E851FD4FA591B491EC91ED2381E090E0FA
:1008A00009F480E0DF91CF91089580E090E0FACFE5
:1008B0001F93CF93DF93282F30E0F901EE57FD4FC0
:1008C0008491F901E85BFC4FD491F901EE5FFC4F94
:1008D000C491CC23A9F0162F81110E94C803EC2FDC
:1008E000F0E0EE0FFF1FE859FD4FA591B4918FB7CF
:1008F000F894EC91111108C0D095DE23DC938FBFE2
:10090000DF91CF911F910895DE2BF8CFCF93DF9326
:1009100090E0FC01E85BFC4F24918E5F9C4FFC0152
:1009200084918823D1F090E0880F991FFC01E25B4D
:10093000FD4FA591B491FC01E859FD4FC591D491AB
:10094000623071F49FB7F8943C91822F8095832395
:100950008C93E8812E2B28839FBFDF91CF91089540
:100960008FB7F894EC912E2B2C938FBFF6CF3FB717
:10097000F8948091BF039091C003A091C103B091FE
:10098000C20326B5A89B05C02F3F19F00196A11DF3
:10099000B11D3FBFBA2FA92F982F8827BC01CD01C9
:1009A000620F711D811D911D42E0660F771F881F28
:1009B000991F4A95D1F708958F929F92AF92BF9257
:1009C000CF92DF92EF92FF924B015C010E94B7043D
:1009D0006B017C010E94B7046C197D098E099F0987
:1009E000683E734081059105A8F321E0821A9108C1
:1009F000A108B10888EEC80E83E0D81EE11CF11CE6
:100A000081149104A104B10429F7FF90EF90DF90C5
:100A1000CF90BF90AF909F908F9008952FB7F8948C
:100A20006091BB037091BC038091BD039091BE03A4
:100A30002FBF08950F931F93809182040E942F046B
:100A4000182F809184040E942F04880F991F812BF6
:100A500090918804891709F46DC0E0918804009191
:100A6000890410918A0420918B0430918C0494E0C5
:100A7000E902F0011124482F082E000C550BE42B3D
:100A8000F52BE65FFD4F9081492F990F550B660BB3
:100A9000770B400F511F621F731F409389045093BF
:100AA0008A0460938B0470938C0480938804209153
:100AB00086043091870422303105D1F1233031058D
:100AC000E1F121303105B1F58330A1F58091890440
:100AD00090918A04A0918B04B0918C0432E0B5957A
:100AE000A795979587953A95D1F780938D04909324
:100AF0008E04A0938F04B0939004809195049091FC
:100B00009604A0919704B0919804809399049093CF
:100B10009A04A0939B04B0939C040E940E056093DA
:100B2000950470939604809397049093980402C060
:100B3000882361F21F910F910895882311F083306B
:100B4000C9F78091890490918A04A0918B04B09197
:100B50008C04B595A79597958795C7CFCF92DF92CF
:100B6000EF92FF920F931F93CF93DF93CDB7DEB732
:100B7000C054D1400FB6F894DEBF0FBECDBF0E9467
:100B80000E05009178041091790420917A04309137
:100B90007B046B017C01C01AD10AE20AF30A9701B7
:100BA0008601003D17402105310590F480918004B5
:100BB000C05CDE4F0FB6F894DEBF0FBECDBFDF9135
:100BC000CF911F910F91FF90EF90DF90CF900895FC
:100BD000609378047093790480937A0490937B04F3
:100BE00010927304109272041092710410927004A7
:100BF00010926F0462E0809174040E94860461E0A8
:100C000070E080E090E00E94DC0461E08091740478
:100C10000E94860460E0809174040E9458048091D0
:100C200075048551823020F58BE291E10197F1F74F
:100C300062E0809174040E9486048091810490E0B7
:100C40008230910538F0880F991F880F991F0597FA
:100C50000197F1F7F89480E00E945C026F3F7F4FAC
:100C60008F4F9F4F61F410928004789480E0A0CF62
:100C700064E170E080E090E00E94DC04D9CF81E084
:100C80000E945C026F3F7F4F8F4F9F4F61F38E0139
:100C90000F5F1F4F6E012FEBC21A2EEFD20A7801A1
:100CA00080E00E945C02F7016083718382839383FA
:100CB00081E00E945C02F7016483758386839783D9
:100CC000F8E0EF0EF11CEC14FD0451F7789430E0DD
:100CD00020E0F801C080D180E280F380448155811A
:100CE00066817781FFEFCF16DF06EF06FF0631F052
:100CF0004F3F8FEF58076807780719F41092800468
:100D0000B5CFF90183E0F595E7958A95E1F7E159CB
:100D1000FB4F8081880FC416D506E606F70610F152
:100D200080832F5F3F4F085F1F4F2832310589F6C0
:100D30004091730420916F0480917004280F332731
:100D4000331F80917104280F311D80917204820F2E
:100D5000932F911D99274817190681F681E08093FA
:100D6000800426CF8160DCCF089590E080E0089574
:100D7000CF93DF93EC0160E08E810E94580461E024
:100D80008E810E94580460E08E810E9458048BE896
:100D900091E00197F1F7DF91CF910895CF92DF9223
:100DA000EF92FF920F931F93CF93DF936C017C011F
:100DB00087E0E80EF11CD0E0C0E0062F10E0B8019B
:100DC0000C2E02C0759567950A94E2F76170F701E1
:100DD00081917F010E9458042196C430D10579F792
:100DE000C601DF91CF911F910F91FF90EF90DF909F
:100DF000CF900C94B806CF92DF92EF92FF920F93B0
:100E00001F93CF93DF93EC01F62E642F8C810E9409
:100E100058048D818F3F19F060E00E9458040F2D17
:100E200010E08F8584FF25C06E0187E0C80ED11CBD
:100E3000F12CE12CB8010E2C02C0759567950A942F
:100E4000E2F76170F60181916F010E945804FFEF93
:100E5000EF1AFF0A88E0E816F10461F7CE01DF918E
:100E6000CF911F910F91FF90EF90DF90CF900C9456
:100E7000B806B80184E0759567958A95E1F7CE01CB
:100E80000E94CE066F2DCE01DF91CF911F910F9161
:100E9000FF90EF90DF90CF900C94CE0640E0682F4B
:100EA0008DE994E00C94FB06CF93DF93813029F019
:100EB0009091AC0498609093AC048093B00410922D
:100EC000B10480E48093B20480E18093B30480E5B0
:100ED0008093B40461E08091A1040E948604809113
:100EE000A2048F3F19F061E00E94860461E08091C6
:100EF000A3040E948604CDE9D4E09E012D5934401C
:100F00008091AC0484FD0BC084E090E0219628170A
:100F1000390744F461E08E810E948604EECF88E0B8
:100F200090E0F4CF8BE39DE00197F1F760E08091D2
:100F3000A1040E94580460E08091A3040E94580418
:100F40008091A2048F3F19F060E00E9458048091C4
:100F5000AC0484FD39C063E08DE994E00E94CE06C4
:100F6000CBE4D6E4CE010197F1F763E08DE994E09C
:100F70000E94CE062197F1F763E08DE994E00E948C
:100F8000CE0683E592E00197F1F762E08DE994E007
:100F90000E94CE068091AC0480620E944E0784E0DD
:100FA0008093AD048CE00E944E0781E00E944E07C2
:100FB0008BE39FE10197F1F782E08093AE0486E036
:100FC000DF91CF910C944E0780620E944E078BE414
:100FD00096E40197F1F78091AC0480620E944E077D
:100FE00083E592E00197F1F78091AC0480620E9462
:100FF0004E07D0CF9091B004691710F06FEF690FD2
:10100000E62FF0E0E356FB4F9489890F80680C943B
:101010004E0741E00E94FB0681E090E00895FC014C
:1010200080819181009711F00C947D160895FB0149
:1010300001900020E9F73197AF01461B570BDC0107
:10104000ED91FC910280F381E02D19948F929F9293
:10105000AF92BF92CF92DF92EF92FF92CF93DF9346
:10106000CDB7DEB7A1970FB6F894DEBF0FBECDBFE8
:101070006C01990FEE08FF08F7FE40C041E06DE2F9
:101080008DE994E00E94FB0622273327A9012C1941
:101090003D094E095F0919A2CE0181967C019AE0B3
:1010A000892E912CA12CB12CCA01B901A501940162
:1010B0000E94B715605DF70162937F01211531052C
:1010C0004105510589F790E080E0309729F0BF0194
:1010D0008DE994E00E9417080196A1960FB6F89446
:1010E000DEBF0FBECDBFDF91CF91FF90EF90DF90BD
:1010F000CF90BF90AF909F908F900895A7019601D9
:1011000019A2CE0181967C018AE0882E912CA12C17
:10111000B12CCA01B901A50194010E94B715605D07
:10112000F70162937F01211531054105510589F7CA
:1011300090E080E0309789F2BF018DE994E00E9451
:101140001708CBCF2F923F924F925F926F927F9270
:101150008F929F92AF92BF92CF92DF92EF92FF92C7
:101160000F931F93CF93DF9300D01F92CDB7DEB7BD
:10117000FC01448055804114510409F412C1FB0163
:10118000648075806114710409F40BC17A016B01EC
:101190009C838B83FA01A480B580A618B708FC0154
:1011A00000811181A114B104B9F4F601608171814B
:1011B000C8010E9409188C01009709F4F2C0F701D8
:1011C00060817181448155810E94E717F701848114
:1011D0009581080F191FE9CFB7FC10C0FB012080D3
:1011E00031804201C801B1010E940918009709F439
:1011F0004EC0860D971D8A0C9B1CF5CF3801F60159
:1012000060817181C8010E9409182C01009729F1A1
:101210004C01801A910AA401B801C3010E94E7178A
:10122000680C791CF7016081718144815581C3018B
:101230000E94E717F70184809580680C791CF601FD
:1012400004811581040D151DEB81FC81848195813C
:101250008A0D9B1D95838483D2CFB801C3010F9063
:101260000F900F900F90DF91CF911F910F91FF90F2
:10127000EF90DF90CF90BF90AF909F908F907F9036
:101280006F905F904F903F902F900C9402184814ED
:10129000590409F486C0EB81FC8182819381881511
:1012A000990578F4B4016F5F7F4FC8010E9406175B
:1012B000009709F476C0EB81FC819183808393824F
:1012C0008282EB81FC81048115810150110917FD97
:1012D00068C03801F601248035802114310409F4F6
:1012E00060C0EB81FC81848095808114910409F4B5
:1012F00058C08214930408F454C00815190520F04E
:101300003401F1E06F1A7108EB81FC81408051805B
:10131000C2010FEF1FEF9201260D371D3A8329837B
:10132000E981FA81E817F90788F0F6016081718197
:101330000E940918009751F09C0124193509621682
:10134000730608F4980101968901EACF17FD29C0B8
:10135000200E311EC201820D931DA40142195309B2
:10136000BC018A0D9B1D0E94F017EB81FC818481DA
:1013700095818A0D9B1D9583848320813181820F05
:10138000931FFC011082EB81FC8180819181F70128
:101390006081718144815581800F911F0E94E71700
:1013A00094CF0F900F900F900F90DF91CF911F91DE
:1013B0000F91FF90EF90DF90CF90BF90AF909F90F4
:1013C0008F907F906F905F904F903F902F900895F7
:1013D000EF92FF920F931F93CF93DF93EC017B016A
:1013E0008A0188819981009729F02A813B812417FD
:1013F000350788F4B8016F5F7F4F0E94061700978A
:1014000091F0998388831B830A832C813D81232B50
:1014100011F4FC0110821D830C83B701888199812E
:101420000E9402180CC088819981009711F00E94D7
:101430007D16198218821D821C821B821A82CE019F
:10144000DF91CF911F910F91FF90EF900895EF9250
:10145000FF920F931F93CF93DF93CDB7DEB7A19782
:101460000FB6F894DEBF0FBECDBF7C01CB01BA0131
:10147000F7011182108213821282158214828E016A
:101480000F5F1F4F22E044E00E9447110097C9F010
:10149000FC0101900020E9F73197AF01481B590B7F
:1014A000BC01C7010E94E809A1960FB6F894DEBFFF
:1014B0000FBECDBFDF91CF911F910F91FF90EF90A5
:1014C0000895F70180819181009711F00E947D16A7
:1014D000F701118210821582148213821282E4CFE6
:1014E000EF92FF920F931F93CF93DF93CDB7DEB7A9
:1014F00062970FB6F894DEBF0FBECDBF8C01CB0153
:10150000F8011182108213821282158214824AE03D
:101510009E012F5F3F4F7901B9010E946511F701CC
:1015200001900020E9F73197AF014E195F09B7012B
:10153000C8010E94E80962960FB6F894DEBF0FBE9C
:10154000CDBFDF91CF911F910F91FF90EF90089544
:10155000FC01118210821382128215821482FB0117
:1015600001900020E9F73197AF01461B570B0C940F
:10157000E8091F920F920FB60F9211240BB60F922B
:101580002F933F934F935F936F937F938F939F938B
:10159000AF93BF93EF93FF9382ED93E00E94080314
:1015A000FF91EF91BF91AF919F918F917F916F913B
:1015B0005F914F913F912F910F900BBE0F900FBEF7
:1015C0000F901F9018951F920F920FB60F92112433
:1015D0000BB60F922F938F939F93EF93FF93E0910E
:1015E000E203F091E3038081E091E803F091E903E5
:1015F00082FD1DC090818091EB038F5F8F732091DE
:10160000EC03821741F0E091EB03F0E0EE52FC4F67
:10161000958F8093EB03FF91EF919F918F912F9185
:101620000F900BBE0F900FBE0F901F9018958081EA
:10163000F2CF1F920F920FB60F9211242F933F9368
:101640008F939F93AF93BF938091BB039091BC0303
:10165000A091BD03B091BE033091BA0323E0230FE4
:101660002D3758F50196A11DB11D2093BA03809323
:10167000BB039093BC03A093BD03B093BE038091C2
:10168000BF039091C003A091C103B091C203019622
:10169000A11DB11D8093BF039093C003A093C1030C
:1016A000B093C203BF91AF919F918F913F912F91C2
:1016B0000F900FBE0F901F90189526E8230F0296EB
:1016C000A11DB11DD2CF1F93CF93DF93E2EDF3E0C5
:1016D0001382128288EE93E0A0E0B0E084839583C9
:1016E000A683B7838EE192E09183808385EC90E0BE
:1016F0009587848784EC90E09787868780EC90E0DC
:10170000918B808B81EC90E0938B828B82EC90E0CC
:10171000958B848B86EC90E0978B868B118E128E46
:10172000138E148EEDE9F4E01382128280E392E0CE
:10173000918380838EE184838FE1858380E2868339
:1017400086E1878387E1808788E1818789E18287D5
:101750008AE183878BE184878CE185878DE18687A9
:1017600080E1878781E00E945407C2E8D4E084E2E8
:1017700090E09983888385E290E09B838A8383E06D
:1017800090E09D838C8362E084E20E94860462E0A4
:1017900085E20E94860488810E942F04182F8A8186
:1017A0000E942F04880F991F812B8E831F82188619
:1017B00019861A861B861C861D861E861F86188A19
:1017C000198A1A8AAFE6B4E08BE215968C931597C6
:1017D0008BE016968C931697E3E7F3E0E491179667
:1017E000EC931797EDE2F3E0E4911896EC931897D9
:1017F00040E85EE360E070E01D964D935D936D936D
:101800007C935097DF91CF911F910895CF93DF93F1
:10181000CDB7DEB7AA970FB6F894DEBF0FBECDBF27
:10182000789484B5826084BD84B5816084BD85B5BB
:10183000826085BD85B5816085BD80916E008160C7
:1018400080936E001092810080918100826080936D
:10185000810080918100816080938100809180006F
:101860008160809380008091B10084608093B1009A
:101870008091B00081608093B0008091910082607F
:10188000809391008091910081608093910080917C
:1018900090008160809390008091A100826080938D
:1018A000A1008091A10081608093A1008091A0009F
:1018B00081608093A000809121018260809321014A
:1018C00080912101816080932101809120018160BC
:1018D0008093200180917A00846080937A008091C7
:1018E0007A00826080937A0080917A008160809390
:1018F0007A0080917A00806880937A001092C1000B
:1019000084E00E94540762E086E20E94860462E35B
:1019100070E080E090E00E94FB010E941A05809137
:101920008D0490918E04A0918F04B09190049093B7
:10193000C4038093C303E091E203F091E30382E0E8
:101940008083E091DE03F091DF031082E091E003F9
:10195000F091E1038FEC80831092EA03E091E603BB
:10196000F091E70386E08083E091E403F091E503E2
:10197000808180618083E091E403F091E5038081C0
:1019800088608083E091E403F091E50380818068C2
:101990008083E091E403F091E50380818F7D808373
:1019A0008AE090E0A0E0B0E08093D6039093D70364
:1019B000A093D803B093D90368E372E082ED93E07B
:1019C0000E9417086BE472E082ED93E00E94170812
:1019D00062E0809174040E9486040E940E05605D9E
:1019E000774081099109609378047093790480931A
:1019F0007A0490937B0487E38093810461E083E31E
:101A00000E94860460E083E30E94580461E084E35E
:101A10000E94860460E084E30E94580461E085E34C
:101A20000E94860460E085E30E94580444E6A42EE8
:101A3000B12C5AE0952E00E310E00E941A05809127
:101A40008D0490918E04A0918F04B091900497FF23
:101A500065C060E070E0CB010E94FB0190E080E097
:101A60002091C3033091C4032817390709F441C0FA
:101A70007C01E21AF30A9093C4038093C30386E2C5
:101A80000E942F04813009F056C08091000290918D
:101A900001028E0D9F1D90930102809300028091A0
:101AA0000002909101028536910524F0B092010266
:101AB000A092000280910202909103028536910566
:101AC00024F0B0920302A092020280910002909151
:101AD000010297FF04C0109201021092000280914F
:101AE00002029091030297FF04C010920302109229
:101AF00002020E94AE05882351F0809175048B305C
:101B000030F08D3018F18551823008F451C0412CED
:101B1000512C30EC632E3FE7732E36C0853691058D
:101B20000CF49ECF64E670E080E090E00E94FB0140
:101B300084E690E095CF80910202909103028E0D91
:101B40009F1D9093030280930202A9CF60917004BD
:101B500070E090E080E00E94ED132DEC3CEC4CEC4A
:101B60005DE30E944C146B017C0160916F0470E096
:101B700090E080E00E94ED139B01AC01C701B6012B
:101B80000E940B152B013C010E94AE05882309F42D
:101B900075C0809175048C3009F429C3D8F48B305A
:101BA00091F1C12CD12C90ECE92E9FE7F92E55C074
:101BB00060916F047091700476276727762790E014
:101BC00080E00E94EB132DEC3CEC4CEC5DE30E94BA
:101BD0004C14D8CF8551823020F780907104682D45
:101BE00070E0762F662766277F7780917204682BD6
:101BF00090E080E00E94EB132DEC3CEC4CEC5DE3BC
:101C00000E944C1410C36091710470E090E080E079
:101C10000E94EB136B017C018090720487FE0AC066
:101C2000AC019B0160E070E080E89FEB0E940A1528
:101C30006B017C01682D6F7070E090E080E00E9485
:101C4000ED132DEC3CEC4CEC5DE30E944C14A70131
:101C500096010E940B156B017C01A3019201C30147
:101C6000B2010E94B215811109C0A7019601C701F6
:101C7000B6010E94B215882309F4DEC288ECE82E72
:101C800082E0F82EF7016491662349F082ED93E03B
:101C90000E942A03FFEFEF1AFF0A892B99F76BE4E2
:101CA00072E082ED93E00E94170860E080E00E94FD
:101CB000FA076EE472E08DE994E00E9417086091E3
:101CC000CC037091CD038091CE039091CF030E94FD
:101CD00077156B0160E082E00E94FA07C6010E945E
:101CE0002608B601DD0C880B990B0E94ED139B01B1
:101CF000AC016091CC037091CD038091CE039091A3
:101D0000CF030E940A1520E030E040E251E40E9437
:101D10004C146B017C0160E085E00E94FA07C7016A
:101D2000B6010E947715CB010E94260860E089E089
:101D30000E94FA076CE572E08DE994E00E941708B2
:101D400080910202909103020E94260861E080E0E7
:101D50000E94FA076EE572E08DE994E00E94170890
:101D60006091C8037091C9038091CA039091CB031D
:101D70000E9477156B0161E082E00E94FA07C601BC
:101D80000E942608B601DD0C880B990B0E94ED130A
:101D90009B01AC016091C8037091C9038091CA0393
:101DA0009091CB030E940A1520E030E040E251E41C
:101DB0000E944C146B017C0161E085E00E94FA07EF
:101DC000C701B6010E947715CB010E94260861E089
:101DD00089E00E94FA076CE572E08DE994E00E94C8
:101DE000170880910002909101020E9426086091DC
:101DF000000270910102072E000C880B990B0E94C3
:101E0000ED132091C8033091C9034091CA0350914A
:101E1000CB030E94AD1518160CF01FC281E0809311
:101E2000C5036091020270910302072E000C880B1B
:101E3000990B0E94ED132091CC033091CD0340917A
:101E4000CE035091CF030E94AD1518160CF008C2B6
:101E500081E08093C703E090C7038091C503FE2C07
:101E6000F82AF092C60361E0813009F060E083E374
:101E70000E94580421E061E0E21260E085E30E94E4
:101E8000580481E061E0F81260E084E30E945804A5
:101E90006DE672E0CE0185960E94A80A82ED93E07D
:101EA0000E94F202181619060CF09AC182ED93E016
:101EB0000E94D0029093D1038093D003819709F0C0
:101EC00086C082ED93E00E94F202892BD1F382ED6D
:101ED00093E00E94D0029C01205331092A30310541
:101EE00008F0C1C19093D1038093D0038091D003B7
:101EF0009091D103C097989E7001999EF00C112487
:101F0000F0920302E092020282ED93E00E94F2025C
:101F1000892BD1F382ED93E00E94D0029C012053E3
:101F200031092A30310508F0A3C19093D103809381
:101F3000D0038091D0039091D103C0978E0D9F1D47
:101F4000909303028093020282ED93E00E94F202DA
:101F5000892BD1F382ED93E00E94D0029C012053A3
:101F600031092A30310508F088C19093D10380935C
:101F7000D0038091D0039091D103C097989E7001B7
:101F8000999EF00C1124F0920102E092000282ED81
:101F900093E00E94F202892BD1F382ED93E00E943C
:101FA000D0029C01205331092A30310508F06AC162
:101FB0009093D1038093D0038091D0039091D1036B
:101FC000C0978E0D9F1D9093010280930002809117
:101FD000D0039091D103CF9709F002C16091020222
:101FE00070910302CE014F960E94700A6091000228
:101FF00070910102CE0149960E94700A4091CC0373
:102000005091CD036091CE037091CF03CE01019624
:102010000E94270A6FE473E0CE0107960E94A80A87
:10202000AE014F5F5F4FBE01695F7F4FCE01859666
:102030000E94A208CE0107960E940F08CE010196C9
:102040000E940F084091C8035091C9036091CA03D0
:102050007091CB03CE0101960E94270A6BE573E0D5
:10206000CE0107960E94A80AAE014F5F5F4FBE01E6
:10207000695F7F4FCE0185960E94A208CE01079628
:102080000E940F08CE0101960E940F086AE673E0D5
:10209000CE0101960E94A80AAE01475E5F4FBE01C5
:1020A0006F5F7F4FCE0185960E94A208CE010196F8
:1020B0000E940F086CE773E0CE0101960E94A80A07
:1020C000AE01415E5F4FBE016F5F7F4FCE018596CF
:1020D0000E94A208CE0101960E940F088091C703BA
:1020E0006BE873E0813011F06EE873E0CE01439647
:1020F0000E94A80A8091C6036BE873E0813011F05A
:102100006EE873E0CE010D960E94A80A8091C50387
:102110006BE873E0813011F06EE873E0CE01079652
:102120000E94A80A62E973E0CE0101960E94A80A03
:10213000AE014D5E5F4FBE016F5F7F4FCE01859652
:102140000E94A208CE0101960E940F086FE973E079
:10215000CE0101960E94A80AAE01495F5F4FBE0101
:102160006F5F7F4FCE0185960E94A208CE01019637
:102170000E940F086DEA73E0CE0101960E94A80A42
:10218000AE01435F5F4FBE016F5F7F4FCE0185960B
:102190000E94A208CE0101960E940F0849A55AA5E7
:1021A0006DA17EA182ED93E00E9494026BE472E047
:1021B00082ED93E00E941708CE0107960E940F0857
:1021C000CE010D960E940F08CE0143960E940F0883
:1021D000CE0149960E940F08CE014F960E940F082B
:1021E000CE0185960E940F080E94970326CC80900E
:1021F0007104682D70E090E080E00E94EB136B01A9
:102200007C01609172046F7070E090E080E00E9449
:10221000ED132DEC3CEC4CEC5DE30E944C14A7015B
:1022200096010E940B156B017C0187FE16CDF7FA13
:10223000F094F7F8F09411CDC092C803D092C9037E
:10224000E092CA03F092CB034092CC035092CD03AC
:102250006092CE037092CF0328CD1092C503E1CDDA
:102260001092C703F8CD1093D1030093D0033ECE54
:102270001093D1030093D0035CCE1093D10300934D
:10228000D00377CE1093D1030093D00395CEEF9275
:102290000F931F93CF93DF93E80134E047FD34E1C0
:1022A000042E000C550B57FF03C051954195510961
:1022B000E32E022F242FAE010E948A11CE01DF915E
:1022C000CF911F910F91EF900895BB274A3031F4C1
:1022D000992322F4BDE2909581959F4F0C94711142
:1022E000BB27FB015527AA27880F991FAA1FA417F0
:1022F00010F0A41B83955051B9F7A05DAA3308F0E4
:10230000A95DA193009779F7B111B1931192CB0117
:102310000C94DB138F929F92AF92BF92CF92DF9279
:10232000EF92FF920F931F93CF93DF9300D000D0D3
:1023300000D0CDB7DEB76A01F22EB02E102FFBE32E
:10234000AF2EA01608F41BE31F5F012F27E0AE019C
:102350004F5F5F4F0E940313BC018981982F9970D2
:10236000913009F44EC09BE2E1FC04C09E2D9170B7
:10237000E0FC49C05E2D5071E82FE87083FF55C026
:1023800084E0911101C083E0EF2DE81B8F1508F068
:10239000E0E0D6018E2F20E25523C9F1992329F0E0
:1023A000D6019C93C60101966C0196012D5F3F4FAB
:1023B000E2FE33C08EE4D6018C9391E411969C9397
:1023C000119712968C93D9018E2F90E281112AC019
:1023D000E20FF32FF11D10828EEF9FEF29960FB6BB
:1023E000F894DEBF0FBECDBFDF91CF911F910F914B
:1023F000FF90EF90DF90CF90BF90AF909F908F9025
:1024000008959DE2B7CF90E2B5CF2D938150811111
:10241000FCCFCE0ED11CE0E0C1CF8EE6D6018C936E
:1024200091E6CCCF9D938150D1CF482F447082FF4D
:102430003DC084E0911101C083E08F1510F4EF2DB1
:10244000E81BD6018E2F20E2552309F1992329F0AC
:10245000D6019C93C60101966C0196012D5F3F4FFA
:10246000E2FE1BC089E4D6018C938EE411968C9316
:10247000119786E412968C93D9018E2F90E28823CF
:1024800009F4A6CF9D938150FACF2D9381508111ED
:10249000FCCFCE0ED11CE0E0D9CF89E6D6018C93DB
:1024A0008EE611968C93119786E6E4CF9B0177FF19
:1024B00002C030E020E0A1E0B0E0911102C0B0E045
:1024C000A0E0F9013196AE0FBF1F8B2C912CBB20E1
:1024D00009F461C05401EFEFAE1ABE0AAA0DBB1D8C
:1024E000FA161B0619F014F04F2D4A1B511188C023
:1024F000E3FC59C07601A42FB0E2A1114FC0C40E75
:10250000D11C992309F45BC040E0D6011196F60175
:1025100090836D01552309F448C0012F060F9A815D
:10252000582F507184FF03C0913309F401501016E5
:102530000CF047C0093008F008E0EEE2FE2E5B0127
:10254000A01AB10885019194819491082F3F320718
:1025500029F4D601FC92F60131966F0162177307D8
:1025600094F1021713077CF5DB01A21BB30BAA241D
:10257000A394B12CAC0EBD1EAA0DBB1D11968C915F
:1025800021503109D601119628153905F4F0F601CC
:1025900080836D01DBCFB12CA12CA0CFF701B193CB
:1025A0007F01A150AACF9111B0CFD601942F50E353
:1025B00002C05D9391509111FCCFC40ED11C40E03C
:1025C000ACCF01E0BACF80E3DBCF6217730731F401
:1025D000963388F4953311F4552369F0F60180831E
:1025E000FD01842F90E2811108C0A40FB11D1C923F
:1025F00090E080E0F3CE81E3F1CF91938150F3CF6F
:10260000911183CF8ACF283008F027E03327DA01F1
:10261000990F311D87FD916000966105710539F4B0
:1026200032602E5F3D9330E32A95E1F708959F3F96
:1026300030F080387105610509F03C5F3C5F3D93E7
:10264000913008F08068911DDF93CF931F930F9313
:10265000FF92EF92192F987F9695E92F9695969570
:10266000E90FFF27E255FE4F99273327EE24FF2479
:10267000A701E70105900894079428F4360FE71E98
:10268000F81E491F511D660F771F881F991F06945A
:10269000A1F70590079428F4E70EF81E491F561F6E
:1026A000C11D770F881F991F661F0694A1F705901B
:1026B000079428F4F80E491F561FC71FD11D880F15
:1026C000991F661F771F0694A1F70590079420F4C1
:1026D000490F561FC71FD81F990F661F771F881FE6
:1026E0000694A9F784911095177041F0D695C79577
:1026F00057954795F794E7941A95C1F7E4E5F1E00B
:1027000068941590159135916591959105907FE2AA
:102710007395E118F10A430B560BC90BD009C0F7AA
:10272000E10CF11E431F561FC91FD01D7EF47033EC
:1027300011F48A95E6CFE894015030F0080F0AF4BE
:102740000027021708F4202F2395022F7A3328F050
:1027500079E37D932A95E9F710C07D932A9589F650
:10276000069497956795379517951794E118F10A90
:10277000430B560BC90BD00998F023957E917395A6
:102780007A3308F070E37C932013B8F77E91706180
:102790007D9330F0839571E37D9370E32A95E1F7A3
:1027A0001124EF90FF900F911F91CF91DF91992706
:1027B00087FD90950895DC01FC01672F71917723C7
:1027C000E1F7329704C07C916D9370836291AE17EC
:1027D000BF07C8F30895E89409C097FB3EF49095AD
:1027E0008095709561957F4F8F4F9F4F9923A9F0EA
:1027F000F92F96E9BB279395F69587957795679579
:10280000B795F111F8CFFAF4BB0F11F460FF1BC0BC
:102810006F5F7F4F8F4F9F4F16C0882311F096E94F
:1028200011C0772321F09EE8872F762F05C06623FD
:1028300071F096E8862F70E060E02AF09A95660FB6
:10284000771F881FDAF7880F9695879597F908956F
:10285000990F0008550FAA0BE0E8FEEF16161706B1
:10286000E807F907C0F012161306E407F50798F019
:10287000621B730B840B950B39F40A2661F0232B32
:10288000242B252B21F408950A2609F4A140A695AE
:102890008FEF811D811D08950E945F140C94D01448
:1028A0000E94C21438F00E94C91420F0952311F040
:1028B0000C94B9140C94BF1411240C9404150E94A8
:1028C000E11470F3959FC1F3950F50E0551F629F7F
:1028D000F001729FBB27F00DB11D639FAA27F00D79
:1028E000B11DAA1F649F6627B00DA11D661F829FA0
:1028F0002227B00DA11D621F739FB00DA11D621F85
:10290000839FA00D611D221F749F3327A00D611DA1
:10291000231F849F600D211D822F762F6A2F112483
:102920009F5750409AF0F1F088234AF0EE0FFF1FB6
:10293000BB1F661F771F881F91505040A9F79E3F0D
:10294000510580F00C94B9140C9404155F3FE4F326
:10295000983ED4F3869577956795B795F795E79563
:102960009F5FC1F7FE2B880F911D9695879597F96C
:10297000089597F99F6780E870E060E008959FEF01
:1029800080EC089500240A94161617061806090606
:10299000089500240A9412161306140605060895D5
:1029A000092E0394000C11F4882352F0BB0F40F45D
:1029B000BF2B11F460FF04C06F5F7F4F8F4F9F4F9D
:1029C000089557FD9058440F551F59F05F3F71F01F
:1029D0004795880F97FB991F61F09F3F79F0879586
:1029E0000895121613061406551FF2CF4695F1DF0F
:1029F00008C0161617061806991FF1CF869571059F
:102A0000610508940895E894BB2766277727CB01D2
:102A100097F908955058BB27AA270E9422150C94B5
:102A2000D0140E94C21438F00E94C91420F039F466
:102A30009F3F19F426F40C94BF140EF4E095E7FBC5
:102A40000C94B914E92F0E94E11458F3BA176207E5
:102A500073078407950720F079F4A6F50C94031505
:102A60000EF4E0950B2EBA2FA02D0B01B9019001A9
:102A70000C01CA01A0011124FF27591B99F0593FED
:102A800050F4503E68F11A16F040A22F232F342F35
:102A90004427585FF3CF469537952795A795F04083
:102AA0005395C9F77EF41F16BA0B620B730B840B98
:102AB000BAF09150A1F0FF0FBB1F661F771F881F50
:102AC000C2F70EC0BA0F621F731F841F48F48795A8
:102AD00077956795B795F7959E3F08F0B0CF93959A
:102AE000880F08F09927EE0F9795879508950E9413
:102AF0007E156894B1110C94041508950E94E91490
:102B000088F09F5798F0B92F9927B751B0F0E1F0AE
:102B1000660F771F881F991F1AF0BA95C9F714C05E
:102B2000B13091F00E940315B1E008950C940315A3
:102B3000672F782F8827B85F39F0B93FCCF3869597
:102B400077956795B395D9F73EF4909580957095F4
:102B500061957F4F8F4F9F4F08950E94281408F46E
:102B60008FEF08950E942814880B990B0895A1E215
:102B70001A2EAA1BBB1BFD010DC0AA1FBB1FEE1FF7
:102B8000FF1FA217B307E407F50720F0A21BB30B42
:102B9000E40BF50B661F771F881F991F1A9469F7BE
:102BA00060957095809590959B01AC01BD01CF011A
:102BB0000895EE0FFF1F881F8BBF0790F691E02D41
:102BC00019940F931F93CF93DF938230910510F4E4
:102BD00082E090E0E091B704F091B80430E020E0AA
:102BE000B0E0A0E0309799F42115310509F44AC00E
:102BF000281B390B24303105D8F58A819B8161155A
:102C0000710589F1FB0193838283FE0111C040812C
:102C100051810281138148175907E0F0481759077D
:102C200099F4109761F012960C93129713961C93D7
:102C30003296CF01DF91CF911F910F9108950093AC
:102C4000B7041093B804F4CF2115310551F04217A1
:102C5000530738F0A901DB019A01BD01DF01F8013A
:102C6000C1CFEF01F9CF9093B8048093B704CDCFD3
:102C7000FE01E20FF31F81939193225031093983B2
:102C80002883D7CF2091B5043091B604232B41F48B
:102C900020910602309107023093B6042093B504C8
:102CA00020910402309105022115310541F42DB720
:102CB0003EB74091080250910902241B350BE09168
:102CC000B504F091B604E217F307A0F42E1B3F0BF6
:102CD0002817390778F0AC014E5F5F4F241735078E
:102CE00048F04E0F5F1F5093B6044093B504819394
:102CF00091939FCFF0E0E0E09CCFCF93DF930097DC
:102D0000E9F0FC01329713821282A091B704B091CE
:102D1000B804ED0130E020E01097A1F4208131816A
:102D2000820F931F2091B5043091B60428173907FC
:102D300009F061C0F093B604E093B504DF91CF9140
:102D40000895EA01CE17DF07E8F54A815B819E010D
:102D500041155105B1F7E901FB83EA834991599186
:102D6000C40FD51FEC17FD0761F480819181029695
:102D7000840F951FE90199838883828193819B83C6
:102D80008A83F0E0E0E012968D919C911397009772
:102D9000B9F52D913C911197CD010296820F931FA9
:102DA0002091B5043091B6042817390739F63097C9
:102DB00051F51092B8041092B704B093B604A093E2
:102DC000B504BCCFD383C28340815181840F951F4A
:102DD000C817D90761F44E5F5F4F88819981480F0A
:102DE000591F518340838A819B819383828321155C
:102DF000310509F0B0CFF093B804E093B7049ECF4B
:102E0000FD01DC01C0CF13821282D7CF4F925F92B7
:102E10006F927F928F929F92AF92BF92CF92DF92EA
:102E2000EF92FF920F931F93CF93DF938C01009744
:102E300099F4CB01DF91CF911F910F91FF90EF900B
:102E4000DF90CF90BF90AF909F908F907F906F90CA
:102E50005F904F900C94E115FC01E60FF71F9C0169
:102E600022503109E217F30708F4AEC0D901CD9121
:102E7000DC911197C617D70720F1C530D10578F03E
:102E8000CE0104978617970750F0C61BD70B2297E1
:102E9000C193D1936D937C93CF010E947D16C8019D
:102EA000DF91CF911F910F91FF90EF90DF90CF9026
:102EB000BF90AF909F908F907F906F905F904F905A
:102EC00008955B01AC1ABD0A4C018C0E9D1EA091A9
:102ED000B704B091B804512C412CF12CE12C10977F
:102EE00031F58091B5049091B6048815990509F0E3
:102EF0005CC04616570608F058C0809104029091B5
:102F00000502009741F48DB79EB740910802509199
:102F10000902841B950BE817F90708F055C0F093D8
:102F2000B604E093B504F90171836083B8CF8D9145
:102F30009C91119712966C90129713967C90139710
:102F4000A815B90559F56C0142E0C40ED11CCA148C
:102F5000DB0420F1AC014A195B09DA0112961597DE
:102F600080F06282738251834083D9016D937C9398
:102F7000E114F10471F0D7011396FC93EE931297CC
:102F80008ECF22968C0F9D1FF90191838083F301D0
:102F9000EFCFF093B804E093B70481CF48165906F9
:102FA00008F42C017D01D3019ACFCB010E94E115D9
:102FB0007C01009749F0AE01B8010E94E717C801F3
:102FC0000E947D1687016BCF10E000E068CFFB0107
:102FD000DC0102C001900D9241505040D8F7089595
:102FE0006817790768F4FB01DC01E40FF51FA40FF3
:102FF000B51F02C002900E9241505040D8F708957C
:103000000C94E717FB01DC0101900D920020E1F721
:103010000895FB0151915523A9F0BF01DC014D91A9
:1030200045174111E1F759F4CD010190002049F015
:103030004D9140154111C9F3FB014111EFCF81E0E2
:1030400090E001970895F894FFCF3200320000001D
:10305000B904800000FF0100010000FFFF00000133
:103060000001FF00000000002A039402C102770360
:10307000F202D002E4020000000009089402B50642
:10308000B406496E697469616C697A656420646527
:1030900076696365000D0A00483D20202E2025201A
:1030A0002020202025003E00543D20202E206F436C
:1030B000202020206F43007B202268756D696469A1
:1030C0007479223A2022247B68756D696469747969
:1030D0007D222C20202273657448756D69646974A3
:1030E00079223A2022247B73657448756D6964697E
:1030F00074797D222C20202273657454656D70656F
:10310000726174757265223A2022247B736574544F
:10311000656D70657261747572657D222C202274F4
:10312000656D7065726174757265223A2022247B28
:1031300074656D70657261747572657D222C2022D4
:1031400068756D537461747573223A2022247B680C
:10315000756D5374617475737D222C202274656DB6
:1031600070537461747573223A2022247B74656DE8
:10317000705374617475737D222C202266616E53C6
:103180007461747573223A2022247B66616E5374D5
:10319000617475737D22207D00247B68756D696480
:1031A0006974797D00247B74656D706572617475D6
:1031B00072657D00247B73657454656D7065726102
:1031C000747572657D00247B73657448756D6964E0
:1031D0006974797D006F6E006F666600247B687588
:1031E0006D5374617475737D00247B74656D7053C9
:1031F00074617475737D00247B66616E53746174B1
:0432000075737D0065
:020000040003F7
:10E000000D9489F10D94B2F10D94B2F10D94B2F129
:10E010000D94B2F10D94B2F10D94B2F10D94B2F1F0
:10E020000D94B2F10D94B2F10D94B2F10D94B2F1E0
:10E030000D94B2F10D94B2F10D94B2F10D94B2F1D0
:10E040000D94B2F10D94B2F10D94B2F10D94B2F1C0
:10E050000D94B2F10D94B2F10D94B2F10D94B2F1B0
:10E060000D94B2F10D94B2F10D94B2F10D94B2F1A0
:10E070000D94B2F10D94B2F10D94B2F10D94B2F190
:10E080000D94B2F10D94B2F10D94B2F10D94B2F180
:10E090000D94B2F10D94B2F10D94B2F10D94B2F170
:10E0A0000D94B2F10D94B2F10D94B2F10D94B2F160
:10E0B0000D94B2F10D94B2F10D94B2F10D94B2F150
:10E0C0000D94B2F10D94B2F10D94B2F10D94B2F140
:10E0D0000D94B2F10D94B2F10D94B2F10D94B2F130
:10E0E0000D94B2F141546D656761323536300041AF
:10E0F000726475696E6F206578706C6F72657220DE
:10E1000073746B3530305632206279204D4C530099
:10E11000426F6F746C6F616465723E004875683F52
:10E1200000436F6D70696C6564206F6E203D200048
:10E130004350552054797065202020203D20005FF9
:10E140005F4156525F415243485F5F3D2000415658
:10E1500052204C696243205665723D20004743437C
:10E160002056657273696F6E203D20004350552024
:10E1700049442020202020203D20004C6F7720663D
:10E18000757365202020203D20004869676820665F
:10E190007573652020203D200045787420667573D6
:10E1A00065202020203D20004C6F636B2066757336
:10E1B000652020203D20004D617220203720323024
:10E1C000313300312E362E3800342E332E350056A2
:10E1D00023202020414444522020206F7020636F70
:10E1E00064652020202020696E73747275637469E1
:10E1F0006F6E2061646472202020496E74657272B3
:10E20000757074006E6F20766563746F7200726A49
:10E210006D702020006A6D70200057686174207056
:10E220006F72743A00506F7274206E6F7420737541
:10E2300070706F72746564004D7573742062652030
:10E2400061206C6574746572002000577269747483
:10E25000696E672045450052656164696E672045B7
:10E26000450045452065727220636E743D00504F35
:10E27000525400303D5A65726F2061646472003FF1
:10E280003D43505520737461747300403D454550C3
:10E29000524F4D207465737400423D426C696E6B41
:10E2A000204C454400453D44756D70204545505215
:10E2B0004F4D00463D44756D7020464C415348001B
:10E2C000483D48656C70004C3D4C69737420492F83
:10E2D0004F20506F72747300513D51756974005234
:10E2E0003D44756D702052414D00563D73686F7707
:10E2F00020696E7465727275707420566563746FF0
:10E30000727300593D506F727420626C696E6B00BD
:10E310002A0011241FBECFEFD1E2DEBFCDBF01E046
:10E320000CBF12E0A0E0B2E0EEE1FDEF03E00BBFB6
:10E3300002C007900D92A030B107D9F712E0A0E01B
:10E34000B2E001C01D92AE30B107E1F70F9460F367
:10E350000D948DFE01E20EBF0FEF0DBF11241FBE05
:10E360000D9460F30D9400F020E030E040ED57E0B4
:10E3700005C0FA013197F1F72F5F3F4F2817390792
:10E38000C0F308959C01260F311DC901A0E0B0E043
:10E390002F5F3F4FABBFFC018791882361F08093D3
:10E3A000C6008091C00086FFFCCF8091C0008064D1
:10E3B0008093C000EACF08958DE08093C6008091DD
:10E3C000C00086FFFCCF8091C00080648093C000B5
:10E3D0008AE08093C6008091C00086FFFCCF8091C8
:10E3E000C00080648093C00008950F94C2F10F9420
:10E3F000DCF10895FC019081992359F09093C600B7
:10E400008091C00086FFFCCF8091C0008064809323
:10E41000C0003196992379F70895282F982F929567
:10E420009F70892F805D8A3308F0895F8093C600D2
:10E430008091C00086FFFCCF8091C00080648093F3
:10E44000C000822F8F70982F905D9A3308F0995FEB
:10E450009093C6008091C00086FFFCCF8091C000E1
:10E4600080648093C00008959C01FB01853691056E
:10E470001CF46330710594F0C90164E670E00F94F8
:10E480002EFE605D7F4F6093C6008091C00086FFC6
:10E49000FCCF8091C00080648093C0002B30310598
:10E4A00014F43297B4F0C90164E670E00F942EFEC4
:10E4B0006AE070E00F942EFE605D7F4F6093C600AF
:10E4C0008091C00086FFFCCF8091C0008064809363
:10E4D000C000C9016AE070E00F942EFEC0968093E0
:10E4E000C6008091C00086FFFCCF8091C000806490
:10E4F0008093C00008951F93182F8EE692EE60E07F
:10E500000F94C2F11093C6008091C00086FFFCCF2B
:10E510008091C00080648093C0000F94DCF11F9153
:10E5200008952F923F924F925F926F927F928F92B7
:10E530009F92AF92BF92CF92DF92EF92FF920F9392
:10E540001F93DF93CF93CDB7DEB762970FB6F894E2
:10E55000DEBF0FBECDBF382E622ECA01DB015C01CB
:10E560006D01772420E2222E2E010894411C511CBB
:10E570008BC081E0A81680E0B80681E0C80680E084
:10E58000D80628F0C601AA27BB270F940DF2BB2797
:10E59000AD2D9C2D8B2D0F940DF28A2D0F940DF225
:10E5A0002092C6008091C00086FFFCCF8091C00001
:10E5B00080648093C0009DE29093C6008091C0006B
:10E5C00086FFFCCF8091C00080648093C0002092C1
:10E5D000C6008091C00086FFFCCF8091C00080649F
:10E5E0008093C00019828601750188249924A1E0D6
:10E5F0003A1651F03A1620F0B2E03B1661F409C029
:10E600000BBFF701779007C0C7010F9477FE782EF4
:10E6100002C0F7017080872D0F940DF22092C60082
:10E620008091C00086FFFCCF8091C0008064809301
:10E63000C000872D8052F401EF70F0708F3520F408
:10E64000E40DF51D708204C0E40DF51D8EE280839B
:10E650000894E11CF11C011D111D0894811C911CE2
:10E6600090E18916910409F0C2CF80E190E0A0E02A
:10E67000B0E0A80EB91ECA1EDB1E198AC2010F9493
:10E68000FAF10F94DCF16A94662009F072CF629679
:10E690000FB6F894DEBF0FBECDBFCF91DF911F91B3
:10E6A0000F91FF90EF90DF90CF90BF90AF909F9031
:10E6B0008F907F906F905F904F903F902F90089534
:10E6C0002F923F924F925F926F927F928F929F9282
:10E6D000AF92BF92CF92DF92EF92FF920F931F9370
:10E6E000DF93CF93CDB7DEB7CD53D1400FB6F894BB
:10E6F000DEBF0FBECDBF01E20EBF0FEF0DBF94B75F
:10E70000F894A89514BE80916000886180936000A1
:10E7100010926000789493FF05C0E0910002F091A0
:10E7200001021995279A2F9A8091C00082608093E8
:10E73000C00080E18093C40088E18093C1000000A4
:10E74000EE24FF24870144E0A42EB12CCC24DD2448
:10E7500024C0C5010197F1F70894E11CF11C011DCB
:10E76000111D21E2E2162EE4F20620E0020720E06D
:10E77000120718F031E0C32ED12CC801B70127ECE5
:10E780003BE140E050E00F9441FE611571058105C9
:10E79000910519F485B1805885B98091C00087FD35
:10E7A00003C0C114D104A9F2A6014F5F5F4FC25E3E
:10E7B000DE4F59834883CE51D140C25EDE4F8881FF
:10E7C0009981CE51D140019711F00D9410FEC05D9A
:10E7D000DE4F19821882C053D14060E0C15DDE4F28
:10E7E0001882CF52D14088249924C35DDE4F19820C
:10E7F0001882CD52D140C05EDE4F188219821A8233
:10E800001B82C052D140CE5CDE4F188219821A8220
:10E810001B82C253D140EE24FF2487010BBFF701B6
:10E8200007911691C45CDE4F19830883CC53D14005
:10E830000D940BFEC25EDE4F28813981CE51D1404E
:10E840002130310509F52091C600C25EDE4F1982E4
:10E850001882CE51D14022C02F5F3F4F4F4F5F4FA4
:10E86000213082E138078AE7480780E0580780F0C6
:10E87000C45CDE4FE881F981CC53D140EF5FFF4F9C
:10E8800019F0EE27FF27099420E030E040E050E047
:10E890008091C00087FFE0CF2091C600C35DDE4FAE
:10E8A00048815981CD52D1404F5F5F4FC35DDE4FEC
:10E8B00059834883CD52D140213209F063C64A3092
:10E8C000510508F05FC60894811C911C53E0851621
:10E8D000910409F059C600E010E018C081E280936D
:10E8E000C6008091C00086FFFCCF8091C00080648C
:10E8F0008093C0002F5F3F4F2931310579F70F9486
:10E90000DCF10F5F1F4F0530110519F020E030E0FA
:10E91000E5CF10920A0210920B0210920C02109294
:10E920000D02109206021092070210920802109235
:10E930000902109202021092030210920402109235
:10E9400005028FEE90EE60E00F94F5F180E191EE1C
:10E9500060E00F94C2F18091C00087FFFCCF9091DE
:10E96000C600903608F09F759032B8F09093C600BC
:10E970008091C00086FFFCCF8091C00080648093AE
:10E98000C000A0E2A093C6008091C00086FFFCCF2B
:10E990008091C00080648093C000983409F4D7C18E
:10E9A0009934B8F4923409F459C1933458F490333B
:10E9B00019F1903308F4E3C59F33A1F1903409F0C5
:10E9C000DEC5BDC0953409F470C1963409F0D7C5D1
:10E9D00098C1923509F42BC2933538F49C3409F46C
:10E9E000F5C1913509F0CBC518C2963509F445C279
:10E9F000993509F0C4C567C483E792EE62E00F94CD
:10EA0000F5F110920602109207021092080210927D
:10EA1000090210920A0210920B0210920C0210923C
:10EA20000D0213C18FE792EE62E00F94F5F18FEEC5
:10EA300090EE60E00F94F5F181E291EE60E00F94CA
:10EA4000C2F187EB91EE60E00F94F5F180E391EE77
:10EA500060E00F94C2F184EE90EE60E00F94F5F167
:10EA60008FE391EE60E00F94C2F186E090E061E008
:10EA700070E00F9434F20F94DCF18DE591EE60E0DC
:10EA80000F94C2F189EC91EE60E00F94F5F18EE401
:10EA900091EE60E00F94C2F183EC91EE60E00F9490
:10EAA000F5F18CE691EE60E00F94C2F18EE10F94E7
:10EAB0000DF288E90F940DF281E00F940DF20F949E
:10EAC000DCF18BE791EE60E00F94C2F119E0E0E039
:10EAD000F0E010935700E4918E2F0F940DF20F94F5
:10EAE000DCF18AE891EE60E00F94C2F1E3E0F0E03F
:10EAF00010935700E4918E2F0F940DF20F94DCF1D8
:10EB000089E991EE60E00F94C2F1E2E0F0E0109349
:10EB10005700E4918E2F0F940DF20F94DCF188EAE8
:10EB200091EE60E00F94C2F1E1E0F0E01093570045
:10EB30001491812F0F940DF20F94DCF107CF8BE825
:10EB400092EE62E00F94F5F18BE492EE60E00F94A8
:10EB5000F5F10F94DCF100E010E019C0C8016F2D51
:10EB60000F947FFEFF2031F489E492EE60E00F9471
:10EB7000C2F10BC0F092C6008091C00086FFFCCFAE
:10EB80008091C00080648093C0000F5F1F4FC80158
:10EB900081519F41A0E0B0E0ABBFFC01F790BAE229
:10EBA000FB1621F0E2E000301E07C1F60F94DCF105
:10EBB0000F94DCF187E592EE60E00F94F5F10F948D
:10EBC000DCF1CC24DD2400E010E01EC0C8010F946D
:10EBD00077FEF82E882331F489E492EE60E00F94FA
:10EBE000C2F10BC08093C6008091C00086FFFCCFAD
:10EBF0008091C00080648093C000FE1419F00894D6
:10EC0000C11CD11C0F5F1F4FC80181519F41A0E063
:10EC1000B0E0ABBFFC01E790FAE2EF1621F022E092
:10EC20000030120799F60F94DCF10F94DCF182E6C4
:10EC300092EE60E00F94C2F1C60161E070E00F94C3
:10EC400034F20F94DCF10F94DCF110920202109276
:10EC50000302109204021092050278CE89E992EE26
:10EC600062E00F94F5F1279A2F9A16C02F9880E052
:10EC700090E0E0EDF7E03197F1F7019684369105E9
:10EC8000C1F72F9A80E090E0E0EDF7E03197F1F7DF
:10EC9000019684369105C1F78091C00087FFE6CFC9
:10ECA0008091C00087FFFCCF64C485EA92EE62E0E9
:10ECB0000F94F5F140910202509103026091040219
:10ECC0007091050281E020E10F9491F2809102029F
:10ECD00090910302A0910402B091050280509F4FD1
:10ECE000AF4FBF4F8093020290930302A0930402A0
:10ECF000B093050280509041A040B04008F426CE69
:10ED0000A4CF83EB92EE62E00F94F5F140910602FE
:10ED100050910702609108027091090280E020E1A1
:10ED20000F9491F28091060290910702A09108023F
:10ED3000B091090280509F4FAF4FBF4F80930602A2
:10ED400090930702A0930802B0930902FFCD80ECD4
:10ED500092EE62E00F94F5F183E792EE60E00F949B
:10ED6000F5F18FE792EE60E00F94F5F18BE892EE0B
:10ED700060E00F94F5F189E992EE60E00F94F5F10F
:10ED800085EA92EE60E00F94F5F183EB92EE60E09D
:10ED90000F94F5F180EC92EE60E00F94F5F187ECC2
:10EDA00092EE60E00F94F5F188ED92EE60E00F9442
:10EDB000F5F18FED92EE60E00F94F5F18AEE92EEB0
:10EDC00060E00F94F5F183E093EEBDCD87EC92EE19
:10EDD00062E00F94F5F181E40F947BF282E40F94EA
:10EDE0007BF283E40F947BF284E40F947BF285E45E
:10EDF0000F947BF286E40F947BF287E40F947BF20E
:10EE000088E40F947BF28AE40F947BF28BE40F94F6
:10EE10007BF28CE40F947BF299CD88ED92EE62E068
:10EE20000F94F5F1772473948824992409C48FED05
:10EE300092EE62E00F94F5F140910A0250910B02BC
:10EE400060910C0270910D0282E020E10F9491F22A
:10EE500080910A0290910B02A0910C02B0910D02D8
:10EE600080509F4FAF4FBF4F80930A0290930B0289
:10EE7000A0930C02B0930D0269CD8AEE92EE62E08F
:10EE80000F94F5F184EE90EE60E00F94F5F18FECC5
:10EE900091EE60E00F94F5F1662477244301CC5D98
:10EEA000DE4F19821882C452D140D401C301B695F5
:10EEB000A79597958795CA5DDE4F88839983AA8326
:10EEC000BB83C652D140CC5DDE4FA881B981C4520C
:10EED000D1401196CC5DDE4FB983A883C452D14096
:10EEE000CD0162E070E00F9434F2B0E2B093C6005E
:10EEF0008091C00086FFFCCF8091C0008064809329
:10EF0000C000EDE2E093C6008091C00086FFFCCF18
:10EF10008091C00080648093C000F0E2F093C6004E
:10EF20008091C00086FFFCCF8091C00080648093F8
:10EF3000C000CA5DDE4FE880F9800A811B81C6529D
:10EF4000D140BB27A12F902F8F2D0F940DF2CA5DBA
:10EF5000DE4F8881C652D1400F940DF2B0E2FB2EF5
:10EF6000F092C6008091C00086FFFCCF8091C00067
:10EF700080648093C0000DE30093C6008091C000C0
:10EF800086FFFCCF8091C00080648093C00010E2B7
:10EF90001093C6008091C00086FFFCCF8091C00016
:10EFA00080648093C0008BBEF3012791C65DDE4F65
:10EFB0002883CA52D140A22EBB24CC24DD2408943D
:10EFC000611C711C811C911C8BBEF3018791282E42
:10EFD0003324442455240894611C711C811C911C09
:10EFE0008BBEF3013791C55DDE4F3883CB52D140E4
:10EFF0000894611C711C811C911C8BBEF30147910C
:10F00000C45DDE4F4883CC52D140ADEFEA2EAFEF66
:10F01000FA2EAFEF0A2FAFEF1A2F6E0C7F1C801E57
:10F02000911E142D032DF22CEE24EA0CFB1C0C1D5A
:10F030001D1D0F940DF220E22093C6008091C000A8
:10F0400086FFFCCF8091C00080648093C000C65DC5
:10F05000DE4F8881CA52D1400F940DF230E23093D6
:10F06000C6008091C00086FFFCCF8091C000806404
:10F070008093C000C45DDE4F8881CC52D1400F9494
:10F080000DF240E24093C6008091C00086FFFCCFA5
:10F090008091C00080648093C000C55DDE4F888190
:10F0A000CB52D1400F940DF250E25093C6008091A4
:10F0B000C00086FFFCCF8091C00080648093C000B8
:10F0C0008FEFE8168FEFF80680E0080780E018075A
:10F0D00031F484E092EE60E00F94C2F1DFC0D80119
:10F0E000C7018070907CA070B0708050904CA040A0
:10F0F000B040D1F52FEF3FE340E050E0E222F322B1
:10F1000004231523CA5DDE4FA880B980CA80DB8046
:10F11000C652D140AE0CBF1CC01ED11EAA0CBB1CD7
:10F12000CC1CDD1C8EE092EE60E00F94C2F1BB2798
:10F13000A12F902F8F2D0F940DF28E2D0F940DF285
:10F1400030E23093C6008091C00086FFFCCF8091F2
:10F15000C00080648093C0004EE34093C60080915D
:10F16000C00086FFFCCF87C08EE09EEFA0E0B0E03D
:10F17000E822F9220A231B239CE0E91694E9F90608
:10F1800090E0090790E0190709F088C0C45DDE4FE0
:10F19000A881CC52D140EA2EFF2400E010E0102FCD
:10F1A0000F2DFE2CEE24C55DDE4FB881CB52D14031
:10F1B000EB0EF11C011D111DD601C501817090706F
:10F1C000A070B070DC0199278827E80EF91E0A1F8D
:10F1D0001B1F20EF30E040E050E0A222B322C42207
:10F1E000D52241E1AA0CBB1CCC1CDD1C4A95D1F7F1
:10F1F000EA0CFB1C0C1D1D1D81E090E0A0E0B0E0BE
:10F20000282239224A225B2235E1220C331C441C7D
:10F21000551C3A95D1F7E20CF31C041D151D57013E
:10F220006801AA0CBB1CCC1CDD1C85E192EE60E0E1
:10F230000F94C2F1C801AA27BB270F940DF2BB2778
:10F24000A12F902F8F2D0F940DF28E2D0F940DF274
:10F2500090E29093C6008091C00086FFFCCF809121
:10F26000C00080648093C000AEE3A093C60080918C
:10F27000C00086FFFCCF8091C00080648093C000F6
:10F28000C601AA27BB270F940DF2BB27AD2D9C2DDD
:10F290008B2D0F940DF28A2D0F940DF20F94DCF14B
:10F2A000CC5DDE4FE881F981C452D140F99709F471
:10F2B0004DCBF4E0EF2EF12C012D112D6E0C7F1CA7
:10F2C000801E911EF2CD83E093EE62E00F94F5F183
:10F2D0008AE192EE60E00F94C2F18091C00087FF56
:10F2E000FCCF1091C6001F751093C6008091C0001E
:10F2F00086FFFCCF8091C00080648093C0000F9493
:10F30000DCF1812F81548A3108F036C1163409F4BA
:10F3100095C0173490F4133409F44EC0143430F40B
:10F320001134F1F0123409F01DC130C0143409F465
:10F3300059C0153409F016C16BC01A3409F4C4C0A1
:10F340001B3438F4173409F48FC0183409F00AC19B
:10F35000A1C01B3409F4D2C01C3409F003C1E8C0B9
:10F360008FEF81B90DC082B1809582B980E090E0C5
:10F37000E0EDF7E03197F1F70196883C9105C1F790
:10F380008091C00087FFEFCF12B8EFC08FEF84B934
:10F390000DC085B1809585B980E090E0E0EDF7E0A3
:10F3A0003197F1F70196883C9105C1F78091C00033
:10F3B00087FFEFCF15B8D9C08FEF87B90DC088B1DF
:10F3C000809588B980E090E0E0EDF7E03197F1F7C3
:10F3D0000196883C9105C1F78091C00087FFEFCF6F
:10F3E00018B8C3C08FEF8AB90DC08BB180958BB9A7
:10F3F00080E090E0E0EDF7E03197F1F70196883C8E
:10F400009105C1F78091C00087FFEFCF1BB8ADC059
:10F410008FEF8DB90DC08EB180958EB980E090E0F0
:10F42000E0EDF7E03197F1F70196883C9105C1F7DF
:10F430008091C00087FFEFCF1EB897C08FEF80BBD1
:10F440000DC081B3809581BB80E090E0E0EDF7E0F6
:10F450003197F1F70196883C9105C1F78091C00082
:10F4600087FFEFCF11BA81C08FEF83BB0DC084B38C
:10F47000809584BB80E090E0E0EDF7E03197F1F714
:10F480000196883C9105C1F78091C00087FFEFCFBE
:10F4900014BA6BC08FEF809301010FC080910201FD
:10F4A00080958093020180E090E0E0EDF7E03197F5
:10F4B000F1F70196883C9105C1F78091C00087FF64
:10F4C000EDCF1092020151C08FEF809304010FC065
:10F4D0008091050180958093050180E090E0E0ED4A
:10F4E000F7E03197F1F70196883C9105C1F78091DB
:10F4F000C00087FFEDCF1092050137C08FEF8093DA
:10F5000007010FC08091080180958093080180E079
:10F5100090E0E0EDF7E03197F1F70196883C910536
:10F52000C1F78091C00087FFEDCF109208011DC088
:10F530008FEF80930A010FC080910B01809580931B
:10F540000B0180E090E0E0EDF7E03197F1F70196F4
:10F55000883C9105C1F78091C00087FFEDCF1092E4
:10F560000B0103C085E292EEEEC98091C00087FFD7
:10F57000FCCF8091C600EAC988E392EEE4C98CE131
:10F5800091EEE1C988249924933011F1943028F444
:10F59000913089F09230B8F408C0953061F195301F
:10F5A000F0F0963009F048C043C02B3109F042C951
:10F5B00091E06BE13FC96227C15DDE4F2883CF52E6
:10F5C000D14092E037C9B22FA0E0622793E032C960
:10F5D000822F90E0A82BB92B622794E02BC92E3004
:10F5E00009F039C3622795E0C05DDE4F19821882A9
:10F5F000C053D1401FC9E1E0F0E0EC0FFD1FC05D3A
:10F60000DE4F08811981C053D140E00FF11F2083E4
:10F610000F5F1F4FC05DDE4F19830883C053D14079
:10F6200062270A171B0709F005C9D80196E002C92D
:10F63000261709F010C303C0973009F0FBC87724E0
:10F640009981933109F412C19431C8F4963009F4C8
:10F65000D8C0973050F4923009F406C1933009F4C1
:10F660006DC0913009F059C253C0913109F477C08F
:10F67000923108F0BBC0903109F04FC2F5C098310B
:10F6800009F487C0993150F4953109F4EFC09531F0
:10F6900008F4C6C1963109F040C2C2C19A3109F4DA
:10F6A0006CC09A3108F491C09B3109F45BC09D3164
:10F6B00009F033C29D81903359F48F81882311F46E
:10F6C0009EE11CC0813011F091E018C098E916C08D
:10F6D000892F807591F0903539F4E0E0F0E089E011
:10F6E0008093570094910AC0983539F4E3E0F0E034
:10F6F00089E080935700949101C090E01A821B82A8
:10F700008D818C831D829E831F8227E030E009C299
:10F710001A8288E08B8381E48C8386E58D8382E581
:10F720008E8389E48F8383E5888780E589878FE5E9
:10F730008A8782E38B872BE030E0F3C18A818139AD
:10F7400041F0823941F0803911F48FE005C080E04A
:10F7500003C082E001C08AE01A828B8344C0772410
:10F76000739482C08D81882311F48EE12CC0813086
:10F7700011F081E028C088E926C01A82E1E0F0E0BB
:10F7800089E08093570084918B831C8224E030E0D1
:10F79000C8C18B81803589F48C81883039F4E2E0EE
:10F7A000F0E089E08093570084910DC0E0E0F0E044
:10F7B00089E080935700849106C0E3E0F0E089E09F
:10F7C0008093570084911A82DFCF8D81836C99E0FA
:10F7D000E1E0F0E0082E90935700E89507B600FCB2
:10F7E000FDCF1A821B8223E030E09BC180EC8A832C
:10F7F000CE5CDE4F188219821A821B82C253D1401E
:10F800008EC18A8190E0A0E0B0E0582F44273327D2
:10F8100022278B8190E0A0E0B0E0DC0199278827C7
:10F82000282B392B4A2B5B2B8D8190E0A0E0B0E098
:10F83000282B392B4A2B5B2B8C8190E0A0E0B0E089
:10F84000BA2FA92F982F8827282B392B4A2B5B2BCF
:10F85000220F331F441F551FC05EDE4F288339839C
:10F860004A835B83C052D1401A8259C13A81C95C34
:10F87000DE4F3883C753D140CA5CDE4F1882C6536F
:10F88000D1408B81C82EDD24CA5CDE4F488159816E
:10F89000C653D140C42AD52A933109F082C0CE5C28
:10F8A000DE4F88819981AA81BB81C253D1408050AB
:10F8B000904CA340B04030F583E0CE5CDE4FE88052
:10F8C000F9800A811B81C253D140F70100935B008C
:10F8D00080935700E89507B600FCFDCFCE5CDE4F65
:10F8E000088119812A813B81C253D14000501F4FAA
:10F8F0002F4F3F4FCE5CDE4F088319832A833B8313
:10F90000C253D140C05EDE4F488159816A817B81FC
:10F91000C052D140DE011B9631E08C9111962C91A2
:10F9200011971296C75CDE4F2883C953D140C85C3B
:10F93000DE4F1882C853D14090E0C85CDE4FE881AA
:10F94000F981C853D1408E2B9F2B0C01FA01609393
:10F950005B0030935700E89511244E5F5F4F6F4F67
:10F960007F4F0EEFE02E0FEFF02ECE0CDF1CC114F8
:10F97000D10499F685E0C05EDE4F088119812A81A5
:10F980003B81C052D140F80120935B008093570027
:10F99000E89507B600FCFDCF81E180935700E8951C
:10F9A00035C0C05EDE4F88819981AA81BB81C0527B
:10F9B000D140B695A795979587957C018601ABE0D8
:10F9C000AA2EB12CAC0EBD1E0BC0D5016D915D01F0
:10F9D000C7010F947FFE0894E11CF11C01501040F8
:10F9E0000115110591F7A60160E070E0440F551F65
:10F9F000661F771FC05EDE4FE880F9800A811B8199
:10FA0000C052D1404E0D5F1D601F711F1A82C05E33
:10FA1000DE4F488359836A837B83C052D1407FC0C5
:10FA2000FA80C55CDE4FF882CB53D140C65CDE4F16
:10FA30001882CA53D1408B81C82EDD24C65CDE4FAC
:10FA400008811981CA53D140C02AD12A1A828981DA
:10FA5000BE016D5F7F4F843121F59601C05EDE4FA0
:10FA6000E880F9800A811B81C052D1400BBFF701A9
:10FA700087919691DB018C9311969C936E5F7F4FDB
:10FA8000D801C7010296A11DB11DC05EDE4F88835B
:10FA90009983AA83BB83C052D14022503040F1F6F3
:10FAA00036C0C05EDE4F288139814A815B81C052F9
:10FAB000D1400894C108D108760100E010E0089414
:10FAC000C11CD11C0894E11CF11C011D111DE20E8A
:10FAD000F31E041F151F21BDBB27A52F942F832FB5
:10FAE00082BD2F5F3F4F4F4F5F4FF89A80B5DB01CC
:10FAF0008D93BD012E153F054007510761F7C05E8C
:10FB0000DE4F288339834A835B83C052D1409601FC
:10FB10002D5F3F4FFB01108204C080EC8A8322E0FE
:10FB200030E08BE18093C6008091C00086FFFCCF5F
:10FB30008091C00080648093C000C15DDE4FF88179
:10FB4000CF52D140F093C6008091C00086FFFCCF19
:10FB50008091C00080648093C000432F3093C60022
:10FB60008091C00086FFFCCF8091C00080648093AC
:10FB7000C000922F2093C6008091C00086FFFCCF6A
:10FB80008091C00080648093C0008EE08093C600A6
:10FB90008091C00086FFFCCF8091C000806480937C
:10FBA000C00065E1C15DDE4FE880CF52D1406E25D7
:10FBB00069276427FE01319610C090819093C6009A
:10FBC0008091C00086FFFCCF31968091C000806498
:10FBD0008093C0006927215030402115310569F715
:10FBE0006093C6008091C00086FFFCCF8091C0006A
:10FBF00080648093C00085B1805885B9772081F4F6
:10FC0000C15DDE4F0881CF52D1400F5FC15DDE4F35
:10FC10000883CF52D14090E0A0E0B0E00D941AF4F8
:10FC200027982F9880E090E020ED37E0F901319798
:10FC3000F1F7019684369105C9F700008091C00064
:10FC40008D7F8093C00081E180935700E895EE2777
:10FC5000FF270994FFCF90E00D941AF497FB092E2B
:10FC600007260AD077FD04D02ED006D000201AF443
:10FC7000709561957F4F0895F6F7909581959F4F08
:10FC80000895A1E21A2EAA1BBB1BFD010DC0AA1FDD
:10FC9000BB1FEE1FFF1FA217B307E407F50720F0F5
:10FCA000A21BB30BE40BF50B661F771F881F991F70
:10FCB0001A9469F760957095809590959B01AC01B9
:10FCC000BD01CF010895AA1BBB1B51E107C0AA1FAC
:10FCD000BB1FA617B70710F0A61BB70B881F991FED
:10FCE0005A95A9F780959095BC01CD010895F99991
:10FCF000FECF92BD81BDF89A992780B50895262F31
:10FD0000F999FECF1FBA92BD81BD20BD0FB6F89400
:0EFD1000FA9AF99A0FBE01960895F894FFCF63
:00000001FF
